:100000000C948A040C94D1040C94D1040C944D14D7
:100010000C94D1040C94D1040C94D1040C94D1040C
:100020000C94D1040C94D1040C941D250C94F1254E
:100030000C941C200C94D1040C94D1040C94D10485
:100040000C94D1040C94D1040C94D1040C94D104DC
:100050000C94D1040C9473200C94D1040C94D1040E
:100060000C94D1040C94D1040C94D1040C94D104BC
:100070000C94D1040C94D1040C94D1040C94D104AC
:100080000C94D1040C94D1040C94D1040C94D1049C
:100090000C94D1040C94D1040C94D1040C94D1048C
:1000A0000C94D1040C94D1040C94D1040102E0010D
:1000B00002E20102E1730103E10103E20103E00056
:1000C0000102E00102E20102E1720103E10103E247
:1000D0000103E0000102E00102E20102E173010319
:1000E000E10103E20103E00006000F0000002B64C1
:1000F00014001A000900130005002961040015000E
:10010000160017000A0035621D001B0006000700DC
:100110001900000000000000295D2C4210074C74FB
:1001200033001C0018000F000D002A7112000C0093
:1001300008001100100034720257015700570B00DD
:100140000E00000000000000050128431707000012
:10015000000000000000000000000000000000009F
:10016000000000000000000000000000000000008F
:10017000000000000000000000000100000000007E
:10018000000000000000000000000000000000006F
:10019000000000000000000000000000000000005F
:1001A000000000000000000000000100000001004D
:1001B0003A003B003C003D003E0001001E001F00D5
:1001C0002000210022000100440045000000000042
:1001D000000000000000000000000100000001001D
:1001E00043004200410040003F000100270026007C
:1001F0002500240023000100035700000000000038
:1002000000000000000000000000010000000000ED
:1002100000000000000000000000000000000000DE
:1002200000000000000000000000000000000000CE
:1002300000000000000000000000010000004C056C
:1002400000000000000000000000000000000000AE
:10025000000000000000000000000000000000009E
:10026000000000000000000000000100000000008D
:10027000000000000000000000000000000000007E
:10028000000000000000000000000000000000006E
:10029000000000000000000000000000000000005E
:1002A000000000000000000000000000000000004E
:1006F00000000000000000000000AD00AC00AA00F7
:10070000A900AB00A80000000000000000000000ED
:100710000000000000000000000001000000470091
:1007200000004A004B000000000053004F00520040
:10073000510050004900390000004D004E000000FB
:1007400000000000000000000000010000000000A8
:100750000000000000002A2B28000000000000001C
:1007600000000000000000000029000000002C1E16
:100770003420212224342627252E362D3738271ED3
:100780001F202122232425263333362E37381F04F9
:1007900005060708090A0B0C0D0E0F101112131491
:1007A00015161718191A1B1C1D2F3130232D35044F
:1007B00005060708090A0B0C0D0E0F101112131471
:1007C00015161718191A1B1C1D2F3130354C000037
:1007D0000000000000000000000000000000000019
:1007E0000000000000000000000000000000000009
:1007F00000007E0F00D4FFFFFFC70000007800D08C
:10080000D0D0D0D0D0010102040810204142444889
:1008100048000000484850608182848890A0C1C28E
:10082000C4D0D0D0D0D0D0C800000000000000005C
:1008300000000000000000000000000000000C03A9
:1008400043006F0072006E00650000001003660038
:100850006F006F007300740061006E0000000403FD
:10086000090409025F00030100A0FA090400000165
:100870000301010009211101000122400007058147
:100880000308000A080B010202020100090401002A
:1008900001020201000524001001042402020524C3
:1008A000060102070582030800FF09040200020A8C
:1008B0000000000705040210000507058302100070
:1008C0000512011001EF0201085346010001000169
:1008D00002000105010906A101050719E029E71534
:1008E00000250195087501810295017508810105B2
:1008F00007190029FF150026FF00950675088100DD
:1009000005081901290595057501910295017503E1
:100910009101C00011241FBECFEFDAE0DEBFCDBFD2
:1009200004B603FE27C08091B9029091BA02A0914B
:10093000BB02B091BC028730904BA740B04BD1F4C2
:100940001092B9021092BA021092BB021092BC022D
:1009500014BE84B7877F84BF0FB6F894A8958091A2
:100960006000886180936000109260000FBEE0E03C
:10097000F8E3099511E0A0E0B1E0E0E9F3E502C099
:1009800005900D92A63BB107D9F722E0A6EBB1E0A6
:1009900001C01D92A93BB207E1F70E9463220C94AB
:1009A000A2290C9400000F9300E123E042E00E9492
:1009B00009060F9108958091F501882309F477C005
:1009C0008091F3019091F4010E9464208D32914056
:1009D00008F46DC01092F5010E94EA128091E901BD
:1009E0009091EA01469709F062C08091EB019091E5
:1009F000EC01469719F18091EB019091EC0145973C
:100A0000D1F58091ED019091EE012091EF013091AF
:100A1000F001822B932B2091F1013091F201822B76
:100A2000932B892B41F580EC90E00E94B8078091D0
:100A3000E9019091EA014697F1F008958091ED0166
:100A40009091EE012091EF013091F001822B932BD8
:100A50002091F1013091F201822B932B892B59F4D3
:100A600084ED90E00E94B8078091E9019091EA013D
:100A7000469709F208958091EB019091EC01209145
:100A8000ED013091EE01822B932B2091EF013091FB
:100A9000F001822B932B2091F1013091F201822BF6
:100AA000932B892B21F48CEA90E00C94B8070895DD
:100AB000CF93DF939C013A9521153F4168F5EC01F6
:100AC000CC27D170DC01AA27B270AC014427547046
:100AD0009C012227387094FF11C080E1CD2B09F4CE
:100AE00080E0AB2B09F08062452B09F08064232B5A
:100AF00009F08068FB01DF91CF91099481E0CD2B53
:100B000009F480E0AB2B09F08260452B09F084608A
:100B1000232B81F38860EECFDF91CF910895CF939F
:100B2000DF93EC01805E9109089720F06DED78E18C
:100B3000209711F465EB76E1CE010E9458058C2FC9
:100B4000DF91CF910C944316CF93DF93EC010E9479
:100B50006E16CE01805E9109089720F064EE78E170
:100B6000209711F46CEB76E1CE01DF91CF910C94DC
:100B7000580581E0089581E008950C94BB0508951F
:100B80000C94BF051F93CF93DF9300D000D00F923A
:100B9000CDB7DEB749835A836B83309118028981C0
:100BA0009A8131111DC06623B9F02223A9F00E9459
:100BB000561D182F682F89819A810E94FF1C698118
:100BC0007A81812F0F900F900F900F900F90DF91EF
:100BD000CF911F910C94CA070E942D1D182FEFCFA3
:100BE0000E94561D69817A81EDCFFC01262F40813C
:100BF00051816281738184810C94C205CF93DF930C
:100C0000EC0160E00E94F505BE01DF91CF910C94EC
:100C1000C0058F929F92AF92BF92CF92DF92EF92D8
:100C2000FF920F931F936B017C0181E090E0A0E0A5
:100C3000B0E04C015D0104C0880C991CAA1CBB1CCF
:100C40004A95D2F7B501A4014C015D0104C0880C9E
:100C5000991CAA1CBB1C2A95D2F7482959296A2934
:100C60007B2904C0880F991FAA1FBB1F0A95D2F7C2
:100C70008A019B010C211D212E213F2104171507FC
:100C80002607370789F48C299D29AE29BF29BC0185
:100C9000CD011F910F91FF90EF90DF90CF90BF900B
:100CA000AF909F908F90089580959095A095B09566
:100CB0008C219D21AE21BF21EACF0E94DA0A0C943B
:100CC000FF0A0E949A120E942E100C94010B0895A4
:100CD0000E94F5180E9467062FEF84E39CE02150E4
:100CE00080409040E1F700C000000C94D8200F93A2
:100CF0001F93CF93DF938C0161E00E94F505EC0117
:100D0000B8010E94F811B801CE010E94BD058823E8
:100D100009F44FC0B801CE010E94060D882309F4E2
:100D200048C0B801CE010E944012882309F441C096
:100D3000B801CE010E9404138823D9F1B801CE0175
:100D40000E945B108823A9F1B801CE010E946F0EAA
:100D5000882379F1B801CE010E94C10E882349F1A0
:100D6000B801CE010E94E40F882319F1F8018281B5
:100D7000882361F0CB35FDE5DF0721F170F4C11563
:100D8000ECE5DE07A1F0CF3DDC45C9F0C801DF91FD
:100D9000CF911F910F910C94B905CC358DE5D807F3
:100DA000A1F0CD35DD4591F70E94FD1DEFCF0E94EA
:100DB000680680E0DF91CF911F910F9108950E9406
:100DC000701FF7CF0E94061EE1CF0E94091EDECFE2
:100DD000DF92EF92FF920F931F93CF93DF93E82F51
:100DE000F0E0E25BF84FD490282F269526952695C3
:100DF00030E0F901E251F84F0491877010E0082EBD
:100E000002C0159507950A94E2F701701127F901C0
:100E1000E252F84FE490F12C082E02C0F594E794CA
:100E20000A94E2F791E0E922FF24F901E253F84F36
:100E3000C491D0E002C0D595C7958A95E2F7C170FC
:100E4000DD270115110519F081EE0E944316E1140A
:100E5000F10419F086EE0E9443168D2D0E94AD1606
:100E6000EF2819F086EE0E946E16012B19F081EE24
:100E70000E946E16CD2B51F08CE2DF91CF911F9125
:100E80000F91FF90EF90DF900C94AD16DF91CF9112
:100E90001F910F91FF90EF90DF900895EF92FF92D6
:100EA0000F931F93CF93DF938C01F62E8AE0E82EE9
:100EB000F8018491882309F454C0813009F04DC0B1
:100EC000E8012196FE018491813091F42196FE0182
:100ED00084910E94AD168E010F5F1F4F8F2D8150A0
:100EE00038F3EFE9FFE03197F1F700C00000F7CFEA
:100EF000823039F4E8012296FE0184910E94431663
:100F0000EACF833039F4E8012296FE0184910E94F1
:100F10006E16E1CF8430F9F6E8012296FE012491A5
:100F200090E080E0FE0131962053330B2A303105EA
:100F300048F0019780F2EFE9FFE03197F1F700C048
:100F40000000F7CFE89EA001E99E500D1124C901D1
:100F5000840F951F2491EF01E5CF0E94E806E80178
:100F6000BACFDF91CF911F910F91FF90EF9008952D
:100F700060E00C944E0708950C94BB0781E008953F
:100F80000C94BE07CF93C82F0E94BC078C2FCF9123
:100F90000C94C007972F70E026E0929F600D711DA2
:100FA0001124FB0190E3899FE00DF11D1124EE0F48
:100FB000FF1FE251FF4F859194910895CF93DF93E6
:100FC0000E94CA070E94B108EC01811523E592072F
:100FD00090F5811532E5930708F096C0811590428F
:100FE000C8F4C11581E0D80788F4C53AD10548F4A2
:100FF000C430D10558F4C130D10541F0D0E0C0E093
:1010000005C0CE01805E91090897C0F7CE01DF913F
:10101000CF910895C11591E5D90708F070C0C115A9
:1010200020E5D20708F04EC0C11530E4D30730F3F5
:10103000DF70D06AEBCF811546E59407F0F4C11557
:1010400085E5D80708F075C0C11594E5D90708F003
:101050006BC0CE018370992721E030E002C0220FDF
:10106000331F8A95E2F7C695C69590E2C99FE001C5
:101070001124C22BD32BDA68C9CF81152AE5920738
:1010800078F4811539E5930708F05EC0811548E5CD
:10109000940708F4B3CFD82FCC27C06FD06AB6CF4F
:1010A00090568115904208F0A9CF8D2F8F710E9424
:1010B000480990E0982F882788279F719C012C2B46
:1010C000E90140C0CE01E4E096958795EA95E1F705
:1010D00083702C2F26952695237040E2249F900143
:1010E0001124382B8C2F8370C1E0D0E002C0CC0FCC
:1010F000DD1F8A95E2F7C22BD32BDC6887CFDC2F6C
:10110000CC27C16FD06A82CF8370992721E030E06D
:1011100002C0220F331F8A95E2F7C695C69580E27A
:10112000C89FE0011124E7CFDC2FCC27C46FD06A21
:101130006DCF8C2F0E944809C82FD0E0DC2FCC2720
:10114000CC27DF71D06262CF8F700E94480934E0F3
:10115000D695C7953A95E1F7CF709C2FEC01D069F1
:1011600055CF82389105B1F1B0F48133910509F47E
:1011700075C048F48932910509F469C08A32910535
:1011800009F473C008958533910509F459C0893372
:10119000910501F10895833E9105A9F138F4803E4F
:1011A0009105F9F0823E910549F10895863E910539
:1011B000A9F1873E9105C9F1843E910519F5209169
:1011C000910221FF1FC08091900284FD14C087EE20
:1011D00090E00895209190022370A1F080EE90E0BD
:1011E00008952091900220FD47C03091910230FF78
:1011F00009C024FF44C090E080E004C02091900228
:1012000022FDF7CF08952091900222FD3BC030913E
:10121000910230FDE3CF24FFF5CFEDCF2091900276
:1012200023FFF0CF24FDE7CFD2CF2091900223FD02
:101230002CC03091910231FFEECF84EE90E0089502
:101240002091900225FFDECF89E290E00895209161
:10125000900225FFD7CF85E390E00895209190027A
:1012600026FFD0CF8AE290E008952091900226FFD9
:10127000C9CF81E390E0089589E390E0089583EE7B
:1012800090E0089582EE90E0089586EE90E0089553
:101290009091900292FF06C0282F28712830F9F40F
:1012A000877F846093FF06C0282F28712831F1F4CE
:1012B000877E84612091910220FF06C0382F38710B
:1012C0003830D9F4877F816021FF06C0282F28712C
:1012D0002831D1F4877E816194FD877E0895282F7F
:1012E00024712430F9F68B7F8860DCCF282F24719D
:1012F000243101F78B7E8861DDCF382F3171313099
:1013000019F78E7F8860E0CF282F2171213121F7D6
:101310008E7E8861E1CFCF92DF92EF92FF920F93A2
:101320001F93CF93C0E0E82EF12C8C2F0E94030B6B
:1013300010E000E0C82ED12CC601002E02C0959509
:1013400087950A94E2F780FD11C00F5F1F4F0630AA
:10135000110591F7CF5FC83041F780E0CF911F9121
:101360000F91FF90EF90DF90CF900895602F7C2F2A
:1013700080E00E94CA07E816F90639F781E0EECF4F
:10138000CF93C82F8CE20E948B09882321F08C2FE9
:10139000CF910C948B0980E0CF910895CF93C5E64F
:1013A000C15009F0CAC089E20E94C009811100C180
:1013B0008AE20E94C00981110E94701F85E00E948C
:1013C000C00981110E94D82087E00E94C0098823AB
:1013D00071F08BE10E94C009882309F4B7C0909195
:1013E0008402892F8D7F91FF826080938402809197
:1013F00084020E94D01E80EE0E94C009882341F022
:1014000090919002892F8E7F90FF8160809390024F
:1014100089E30E94C009882341F090919002892FAE
:101420008D7F91FF82608093900282EE0E94C009BE
:10143000882341F090919002892F8B7F92FF8460E6
:101440008093900286EE0E94C009882341F090911B
:101450009002892F877F93FF88608093900283EEAC
:101460000E94C009882341F090919002892F8F7EBD
:1014700094FF80618093900285E30E94C0098823D5
:1014800041F090919002892F8F7D95FF806280932B
:10149000900281E30E94C009882341F0909190025C
:1014A000892F8F7B96FF80648093900281E10E9458
:1014B000C009882341F090919002892F97FB87F90A
:1014C00080588093900280919002909191020E94A6
:1014D000EC1E87E20E94C009811155C08EE10E9476
:1014E000C009811152C08FE10E94C00981114FC013
:1014F00080E20E94C00981114CC081E20E94C009B3
:10150000811149C082E20E94C009811146C083E274
:101510000E94C009811143C084E20E94C009811168
:10152000C0E88C2F0E94D91E8FE00E94C00988233A
:10153000C1F181E0CF910C94721F0E94D60B8FE312
:101540009CE90197F1F700C000002ACF8EE00E94CD
:10155000C009882339F090918402892F8B7F92FFF4
:10156000846043CF80E10E94C00990918402882367
:1015700029F0892F877F93FF886037CF892F8E7F4F
:1015800090FF816032CFC1E0CCCFC2E0CACFC4E0CF
:10159000C8CFC8E0C6CFC0E1C4CFC0E2C2CFC0E46C
:1015A000C0CF85E10E94C009882311F080E0C2CF3E
:1015B000CF9108950E94C11E811102C00E94701F28
:1015C0000E94CC1E809384020E94DE1E90939102A2
:1015D000809390020E94CE090E94D51E682F70E071
:1015E00090E080E00E94031C60916F027091700295
:1015F00080917102909172020C943B1C08950C949E
:10160000FE0A0C94DB04E82FF0E0E656FD4F8081E3
:101610000895089580EA8A95F1F7089500C0089525
:101620000C940A0BF894E82FE295EF70F0E031A1EA
:10163000282F2F7081E090E001C0880F2A95EAF7EB
:10164000982F9095932391A392A1892B82A37894AC
:10165000089508950C94290B0E94A90C80916D01A6
:1016600080916D0194E0811190E09093A30284E059
:10167000891B8093A20284E90E94120B86E60E94D5
:10168000120B87E90E94120B86EC0E94120B84EF6A
:101690000E94120B85EF0E94120B86EF0E94120B24
:1016A00087EF0E94120B81E30E94120B83E30E94DA
:1016B000120BE2E9F2E0AAE9B2E08AE992E01192C3
:1016C0001D928E179F07D9F784E00E94580C0E9444
:1016D0005D060C94B30C1F93CF93DF9300D000D022
:1016E000CDB7DEB70E948F0C182F6091A30288231C
:1016F00009F44FC019821A821B821C82862F90E047
:10170000BE016F5F7F4F86569D4F0E945813811117
:1017100020C08091B8018F5F8093B8018630B8F106
:10172000E091A202F0E0E656FD4FDE011196CE01F7
:10173000059611921D92A817B907D9F70E94610664
:10174000812F0F900F900F900F90DF91CF911F91ED
:1017500008951092B801A091A202B0E0A656BD4F24
:10176000BE016F5F7F4F9E012B5F3F4F10E04D9199
:10177000FB019191BF01491731F0AD014150510971
:10178000FA019083182F6217730789F7D7CF10E0FB
:10179000D5CF70E066567D4F8091A20290E08656CC
:1017A0009D4F0E947F130E942A0BCACFCF92DF92D7
:1017B000EF92FF920F931F93CF93DF930EEA11E006
:1017C00082E9E82E82E0F82EC0E0CC24C394D12C2C
:1017D000F80181918F01F894E82FE295EF70F0E025
:1017E00021A18F70A60102C0440F551F8A95E2F710
:1017F000CA01922F982B91A392A18095892382A34D
:1018000078940E940E0BE8EAF1E030E020E0D0E0AE
:101810004191A42FA295AF70B0E090968C9190E08A
:101820004F7002C0959587954A95E2F780FD3CC0C0
:101830008C2D022E01C0880F0A94EAF7D82B2F5F57
:101840003F4F2630310521F7F801319780810E9402
:10185000120B0E94100BF7018081D81739F1D08349
:1018600081E0C82BFFEFEF1AFF0A41E0023B1407AB
:1018700009F0AECF6091A30270E066567D4F2C2F29
:1018800044E082E992E00E94590C0E946B0BC11166
:1018900001C0C82F8C2FDF91CF911F910F91FF9026
:1018A000EF90DF90CF90089580E0C8CF80E0D9CF4F
:1018B0000895FF920F931F93CF93DF93F82E092F74
:1018C000162FD72FC42F222349F081E08093BB012C
:1018D0000E944C209093BA018093B9018091BB0182
:1018E0008823A1F08091B9019091BA010E946420EF
:1018F000069760F0EF2DF02FA12FBD2FCE0FDF2F19
:10190000D11DEC17FD0741F41092BB01DF91CF917F
:101910001F910F91FF90089581918D93F2CF809147
:10192000BC01811107C00E944129882351F081E048
:101930008093BC0181E09091BC01913009F080E07E
:10194000089582E08093BC010E943C29F3CF0C945F
:101950008F0C0E94A70C80936D010E948F0C811147
:101960000C944C1308950E948F0C811102C00C94AA
:101970005213089586E0E5ECF1E0DF01982F1D9207
:101980009A95E9F7EFEBF1E0DF011D928A95E9F70F
:101990000895CF93DF9300D000D00F92CDB7DEB77C
:1019A0006B837C838D838C819D81892B21F0CA017F
:1019B00089238F3F51F480E081700F900F900F903A
:1019C0000F900F90DF91CF9108958B81F5CF0E94FA
:1019D000C11E811102C00E94701F8DE090E00E9424
:1019E00060298093BD010895CF93C82F0E94BA0C3F
:1019F000C093BD016C2F8DE090E0CF910C946E29C7
:101A000081E0089581E0089581E00895EF92FF92CA
:101A10000F931F93CF93DF937C01EB0180E3E816D4
:101A20008AE5F806E9F030F4C7019A558A97A0F1E3
:101A3000C1E01DC0F1E3EF16FAE5FF06C9F781E347
:101A40009AE50E94040D882389F0488159816A81B2
:101A50007B818C810E94C90C882341F081E019C0F0
:101A600080E39AE50E94040D811109C0C0E08C2F2B
:101A7000DF91CF911F910F91FF90EF9008954881D2
:101A800059816A817B818C810E94C90C882371F302
:101A900080E00E94F40CEACFC7010E94040D882365
:101AA00029F31091BD011123F9F0113009F445C05B
:101AB0000091BE012FEB31E0412FBE01C7010E9412
:101AC000020D882399F2488159816A817B818C813A
:101AD0000E94C90CC82F8091BE01CC2309F458C0C4
:101AE0008F5F8093BE01C2CF488159816A817B811B
:101AF0008C810E94C90CF701FF27E250F84F9491A6
:101B0000A92FA295A695A695A370B0E0882371F0A1
:101B10009D012B533E4FF9018081892B8083A15475
:101B2000BE4F8C91E92FE82BEC93C2CFAB53BE4F45
:101B3000E92FE0958C91E823F7CF488159816A819C
:101B40007B818C810E94C90C482F8E2D67E00E94FA
:101B50004E29292FE82FF0E086E090E0821B9109C2
:101B600021E030E001C0220F8A95EAF7DF01AB5394
:101B7000BE4F8C91442341F0822B8C93E154FE4F55
:101B80008081282B208394CF209528232C9390CFDD
:101B9000815018160CF4A5CF1092BE016FEB71E0C6
:101BA0008091BD010E94000D882331F08091BD011C
:101BB000882329F0813099F00E94BA0C58CF0FEB9E
:101BC00011E0F80181918F0181110E942622F1E03C
:101BD000033C1F07B1F780E00E942622EDCF8091E1
:101BE000BF0180688093BF010FEB11E085ECE82E08
:101BF00081E0F82EF80181918F010E942622E016E3
:101C0000F106C1F7D9CF0F931F93CF93DF93C42F62
:101C1000D22FFC0182818823C9F04093CD010E941C
:101C20004C209093CC018093CB0180E28C0F8830C4
:101C300008F050C0C77081E001C0880FCA95EAF76C
:101C4000DF91CF911F910F910C94B5161091CD019A
:101C5000141335C08091CB019091CC010E94642077
:101C6000883C910560F5C0E2CD0F1D17B9F080E208
:101C7000810F883040F4177081E001C0880F1A95F9
:101C8000EAF70E94BC16C83048F481E09D2F977097
:101C900001C0880F9A95EAF70E94B516802F0E941E
:101CA000AD16C830B8F4D77081E001C0880FDA955E
:101CB000EAF7DF91CF911F910F910C94BC1680E24F
:101CC0008C0F883038F4C77081E001C0880FCA9546
:101CD000EAF7EFCFDF91CF911F910F9108950F9306
:101CE0009C01CB01243F4CE5340759F1A8F4293D70
:101CF000FCE53F0701F12A3D4CE53407D1F1283DD1
:101D00003C4591F406E221EE41EE68ED7CE50E944F
:101D1000030E80E00F910895263FFCE53F07E9F0B0
:101D2000B0F0273F3C45F9F0FC018281882339F16E
:101D30001092CD01EFCF07E225EE45EE69ED7CE58F
:101D4000E6CF06E221EE40EE64EF7CE5E0CF07E26D
:101D500025EE44EE65EF7CE5DACF06E221EE42EEB9
:101D600066EF7CE5D4CF07E225EE46EE67EF7CE533
:101D7000CECF08E221E045EE6AED7CE5C8CF81E0F8
:101D8000C9CFCF93DF93EC01FB018281882309F453
:101D900019C1C230FCE5DF07C0F1C6319CE5D907A7
:101DA00030F09E012B5F3C452930310570F50E94D3
:101DB000DE1E9093910280939002C031ECE5DE0725
:101DC00009F4CFC008F05BC0C8308CE5D80709F42F
:101DD000B6C088F5C430ECE5DE0709F4A8C0C0F44D
:101DE000C2308CE5D80709F49CC0809190028260D3
:101DF000C330DC4509F498C0809190029091910223
:101E00000E94EC1E0E94F51880E0DF91CF910895AA
:101E1000809190028061C630ECE5DE0709F484C051
:101E2000809190028860C730DC4508F47DC08091C5
:101E30009002806279C0CC308CE5D80709F489C063
:101E400070F4809190028C60CA30ECE5DE0709F4F2
:101E50006BC008F478C0809190028E7F65C0CE3050
:101E60008CE5D80709F479C0809190028B7FCF3040
:101E7000DC4508F459C0809190028F7E55C0CC3F5C
:101E8000ECE5DE0709F457C030F5C3318CE5D8071F
:101E900009F46FC078F4C131ECE5DE0709F465C0E0
:101EA000C231DC4509F0A8CF0E94F518809190025C
:101EB0008F773AC0C5318CE5D80709F462C008F4C1
:101EC00076C0809191028160CB3FDC4509F094CFD0
:101ED0008093910291CFC115FDE5DF0709F44DC054
:101EE00088F4809191028D7FCE3F9CE5D90781F3E4
:101EF000809191028E7FCF3FDC4550F3809191021B
:101F00008360E6CFC230FDE5DF0709F459C008F46D
:101F100044C080E0C330DD4509F06ECF0E94721FDF
:101F20006BCF8091900281608093900265CF809109
:101F300090028460F9CF809191028260C9CF809134
:101F400090028064F1CF0E94F51880919002806821
:101F5000EBCF809190028D7FE7CF80919002877FB9
:101F6000E3CF809190028F7DDFCF809190028F7BB5
:101F7000DBCF80919002837FD7CF809191028C7FBD
:101F8000A7CF8091900282FB992790F921E09227B8
:101F900090FB82F990FB83F9C7CF80919102982F33
:101FA000909591708E7F892B90FB81F991CF0E9443
:101FB000F51890919002892F97FB87F98058B4CF3C
:101FC00081E0ACCF81E021CFCF93DF93EB0186316D
:101FD0009C4511F50E940C1E9A81992399F08A7AEA
:101FE00091E009F490E09093CE01811109C089E25B
:101FF0000E94C61D0E94521E80E0DF91CF9108957D
:1020000085E3F6CF8091CE01811104C089E20E9460
:10201000CD1DF0CF85E3FBCF81E0EFCFCF93909143
:10202000DF01992321F0811116C01092DF01CF91B9
:102030000895EC2FF0E0EE0FFF1FE153FE4F80817B
:1020400091810E948F050E94521ECF5F8091DF0117
:10205000C81778F3EACFC0E0F9CF089580916E01F8
:102060008823A1F08091E001882381F08091E40130
:102070009091E501009751F00E946420893C910500
:1020800028F01092E00181E00C940E100895109257
:10209000E00110926E011092E5011092E40181E0DE
:1020A0000C940E1080916E0181110C94471081E008
:1020B00080936E0108958F929F92AF92BF92CF92BC
:1020C000DF92EF92FF920F931F93CF93DF938C01D8
:1020D0007B011092E101883F4CE59407A9F4FB01D4
:1020E000C281CC2331F181E080936E018C2FDF918E
:1020F000CF911F910F91FF90EF90DF90CF90BF9005
:10210000AF909F908F900895893FFCE59F0739F429
:10211000FB01C281CC2369F00E944710E7CF8A3FC0
:102120009C4539F4FB01C281CC2319F00E94521066
:10213000DDCFD0916E01C1E0DD23C1F21092E30149
:102140001092E201C0E0CC24C394D12C9924939442
:1021500080916801909169013FEF20E0E22FF0E06B
:10216000EE0FFF1FE80FF91F459154910417150753
:1021700009F4322F452B11F02F5FF0CF3F3F31F59F
:10218000812CC829DD2321F0D1E080916C018111DF
:10219000D0E0D1708091E2019091E301019690939B
:1021A000E3018093E201892B99F28091E101882378
:1021B00009F45DC00E944C209093E5018093E401F6
:1021C00080E00E940E1081E0C82790CF8090E0014F
:1021D000F701928180916C01560101C0AA0C3A95D9
:1021E000EAF7992309F1A82AA0926C01882041F20C
:1021F000C60102C0880F991F2A95E2F70197A81619
:10220000190609F0BECF80916A0190916B01009789
:1022100029F00E948F059092E101B3CF61E090E038
:1022200080E00E942D10F7CFA60102C0440F551F79
:102230002A95E2F79A012150310982171306A9F471
:1022400080916A0190916B01009749F00E94A4056A
:10225000A09480916C01A822A0926C0192CF60E0C2
:1022600090E080E00E942D10F3CF812CF1CFC111BE
:102270000EC081E00E940E10DD2309F4A4CF10925D
:10228000E5011092E40181E08093E0019CCFF70129
:102290008281882309F497CF8091E001882309F493
:1022A00092CF0E944C209093E5018093E401E0914D
:1022B000DF01E83008F087CF81E08E0F8093DF01E7
:1022C000F0E0EE0FFF1FE153FE4F118300837BCF41
:1022D000CF93DF93EC0181E0898B8F810E940F1EE9
:1022E00088850E94221E0E94521EEA81FB8130973F
:1022F00039F06C897D89CE010696DF91CF910994E2
:10230000DF91CF910895CF93DF93EC0188818230E4
:1023100039F4FB01828193810E948F0581E08B87D4
:10232000DF91CF910895FC018081813029F4FB0178
:10233000808191810C948F05823021F4FB01828190
:102340009381F8CF0895FC018081813029F4FB014D
:10235000808191810C94A405823021F4FB0182815B
:102360009381F8CF0895EF92FF920F931F93CF932D
:10237000DF93EC018A85811134C0EB80FC8087E516
:10238000F81A26E12E9DC0012F9D900D1124DC012D
:10239000A050BF4F1496ED91FC911597309731F0F6
:1023A00054966D917C918A5F9E4F099586E18E9D32
:1023B00080018F9D100D112400501F4FF80187815F
:1023C0000E94151EF80180850E94281E0E94521E40
:1023D000188219861B861E821D821092E7011092B8
:1023E000E601DF91CF911F910F91FF90EF9008953B
:1023F000DF92EF92FF920F931F93CF93DF937C01B5
:10240000FB018281882391F080916F018F3F71F0F1
:10241000C0E0D1E010E000E0DD24D39480916F01B2
:10242000082E000C990B8017910744F4DF91CF918F
:102430001F910F91FF90EF90DF9008958E81882378
:10244000D9F089859A858E159F0539F48091E6012A
:102450009091E7018E159F0579F0DF86FC86EB866B
:102460008989811103C0CE010E946811CE010696B0
:102470000E94B3110E942F1E0F5F1F4F6696CECF92
:10248000EF92FF920F931F93CF93DF937C019755A9
:102490008F3F910509F0D8F520916F01022E000CB5
:1024A000330B2817390714F480936F01FB01228145
:1024B00036E1389F8001399F100D1124E801C0508A
:1024C000DF4F288B92818E81992349F1FA86E98624
:1024D0008F5F8E830E944C209E878D870E94351EC1
:1024E0008F830E940C1E88870E941F1E9885892B4F
:1024F0008887E881F981309731F06C897D89C8013E
:102500008A5F9E4F0995F092E701E092E60181E033
:10251000DF91CF911F910F91FF90EF900895882345
:10252000B1F38989882399F3C8018A5F9E4F0E947D
:10253000B311EDCFEF92FF920F931F93CF93DF93E1
:1025400080916F0110E006E18F3FC1F5DF91CF91DF
:102550001F910F91FF90EF900895029FF001039F4C
:10256000F00D1124E050FF4FE288F388E114F104EC
:1025700019F488ECE82EF12C029FE001039FD00DA6
:102580001124C050DF4F8E818823B9F08D859E8540
:102590000E946420E816F90680F4109F700111244F
:1025A0008989811105C0C70180509F4F0E94681121
:1025B000C7018A5F9E4F0E94B3111F5F212F30E039
:1025C00080916F01082E000C990B821793072CF64F
:1025D000BDCF089508958091F501811114C00E9426
:1025E000E91281E08093F5010E944C209093F40160
:1025F0008093F3011092E801E9EEF1E08AE0DF0157
:102600001D928A95E9F708951F93CF93DF93EC010C
:10261000FB011281111106C011E0812FDF91CF91D2
:102620001F9108958091F501882381F18091F30134
:102630009091F4010E9464208C32914068F7CE01A1
:102640009056811520E2920720F0905E811590410E
:1026500008F4DD278091E801853098F4E82FF0E058
:10266000EE0FFF1FE751FE4FD183C0838F5F809332
:10267000E8010E944C209093F4018093F30110E054
:10268000CCCF1092F5010E94EA12F3CFC932DD459A
:1026900019F60E94EB12C1CF61E070E080E791E093
:1026A0000C94FE1361E070E080E791E00C94051457
:1026B000CF93DF93D62FC72F0E949F140097E9F482
:1026C000ED2FFC2FDC01A550BE4F2C9121930196DC
:1026D00084309105B9F70E94BD206E5F7F4F8F4F08
:1026E0009F4F6093F7017093F8018093F9019093E5
:1026F000FA0181E0DF91CF91089580E0FBCFCF9385
:10270000DF93D62FC72F6091F7017091F801809168
:10271000F9019091FA010E94A020ED2FFC2F90E08A
:1027200080E02191DC01A550BE4F2C9301968430AE
:102730009105B9F7DF91CF9108958EE14A9B02C0D0
:102740008150E1F74A9BFECF08955A9880E28A951E
:10275000F1F75A9A0895FC013BE03A95F1F798E0B9
:1027600020E080E031E040E14A95F1F7880F4A9B94
:1027700002C08160232742E04A95F1F7000040E162
:102780004A95F1F7915079F790E19A95F1F799B15F
:1027900032E03A95F1F7000040E14A95F1F792FBFB
:1027A000992790F992272081920F90830895EF92B4
:1027B000FF920F931F93CF93DF930F92CDB7DEB7A6
:1027C00019828C017C01E60EF11C0E151F0561F4C7
:1027D00081E09981911180E00F90DF91CF911F915D
:1027E0000F91FF90EF9008950E949D13CE010196E6
:1027F0000E94AB13F80181938F01E7CF9093000201
:102800008093FF01529A5A9A089590930002809300
:10281000FF0152985A9AEA9AE9E6F0E080818F7CAB
:10282000808308956150770B91E001C0990F6A95FC
:10283000EAF720E031E0911108C0222391F05A9A82
:1028400080E28A95F1F75A980895492F482339F084
:102850005A9A232740E24A95F1F79695ECCF5A9879
:10286000F9CF5A98EDCFFF920F931F93CF93DF9339
:10287000EC018C01060F111DC017D10731F4DF9157
:10288000CF911F910F91FF900895F9900E94A51389
:1028900068E08F2D0E941214EFCF1F920F920FB697
:1028A0000F9211242F933F934F935F936F937F93D6
:1028B0008F939F93AF93BF93CF93DF93EF93FF9348
:1028C0005A98529AC091FF01D09100026D816623FF
:1028D00021F08E819F810E9433140E94A51380E114
:1028E0008A95F1F75A9852985A9A80E18A95F1F7A9
:1028F0006A81662309F18B819C810E94D713E8814C
:10290000F981882311F088E001C082E080830E9471
:102910009D13FF91EF91DF91CF91BF91AF919F9167
:102920008F917F916F915F914F913F912F910F9078
:102930000FBE0F901F901895E881F981E4CFCF93D7
:10294000DF93C091FF01D0910002F894529A5A98F7
:1029500085E08A95F1F7000052985A9A80E28A95AC
:10296000F1F74A9B0CC0529A5A9AE881F98181E0AA
:102970008083789481E090E0DF91CF9108956D811C
:10298000662381F08E819F810E94D71381110AC036
:10299000529A5A9AE881F98182E08083789482E0A1
:1029A00090E0EACF0E949D1380E28A95F1F75A9851
:1029B000529A80E18A95F1F76A81662321F08B8132
:1029C0009C810E9433140E94A513E881F981108232
:1029D000789490E080E0D0CF909306028093050237
:1029E0000895E0910502F0910602309721F00190E0
:1029F000F081E02D099480E00895E0910502F091C6
:102A00000602309721F00280F381E02D09940895A9
:102A100020910302309104022817390771F0909336
:102A2000040280930302E0910502F09106023097C0
:102A300021F00680F781E02D09940895209101028C
:102A4000309102022817390771F0909302028093A7
:102A50000102E0910502F0910602309721F0008416
:102A6000F185E02D099408950E9458206093140286
:102A700070931502809316029093170260931002D0
:102A8000709311028093120290931302089585B7F8
:102A9000806885BF85B7806885BF089508950895CB
:102AA0000C944E1508950C9452150E9447158FEB07
:102AB0009EE10E94E9200E944F150C9450150C9441
:102AC0008F0C089508950E9461150C9462150E9460
:102AD00043200E9497200E942C0B0E94E70C0C942C
:102AE0005315AF92BF92CF92DF92EF92FF920F9366
:102AF0001F93CF93DF93CDB7DEB72A970FB6F89425
:102B0000DEBF0FBECDBF0E94D60B81110E943415CF
:102B100088E0A82E82E0B82E10E000E0C02E802FC2
:102B20000E94030BE82EF501F1905F01F81609F4FD
:102B30004BC08091840281FD0E94090B8F2D8E2550
:102B4000D12CFF24F394982F9F21C9F10E945F1587
:102B5000882399F0DE82CF82EF2081E009F480E0C3
:102B600088870E944C208160782F9A8789874E81C0
:102B70005F8168858A850E940C16F801E85FFD4F29
:102B80008081F826F0820E94F11490910702891743
:102B900091F10E94F114809307022A960FB6F894DF
:102BA000DEBF0FBECDBFDF91CF911F910F91FF9080
:102BB000EF90DF90CF90BF90AF900C94C207D3946A
:102BC000FF0CF6E0DF12BFCF0F5F1F4F083011057B
:102BD00009F0A4CF8FEF89838A831B820E944C2047
:102BE0008160782F9D838C8349815A816B818D818F
:102BF0000E940C16C8CF2A960FB6F894DEBF0FBEFF
:102C0000CDBFDF91CF911F910F91FF90EF90DF909B
:102C1000CF90BF90AF900895DF92EF92FF920F9305
:102C20001F93CF93DF93CDB7DEB72B970FB6F894F2
:102C3000DEBF0FBECDBF7A878B87F42E052F162FF0
:102C4000E72ED82E61110E942F1E1E821D827E2D1E
:102C5000EC82DD824F2D502F612F8D2D9E812B9682
:102C60000FB6F894DEBF0FBECDBFDF91CF911F919D
:102C70000F91FF90EF90DF900C94591BFC01808125
:102C800091810C94981DCF93C82F882329F18CEF44
:102C90008C0F813AA0F46C2F80917801909179018A
:102CA0000E94891F882329F08C2F0E94CD1D0E942D
:102CB000521E8C2F0E94C61DCF910C94521E80E292
:102CC0008C0F883048F4C77081E001C0880FCA9526
:102CD000EAF70E940F1EF0CFCF910895882329F1C3
:102CE0009CEF980F913A20F40E94CD1D0C94521E37
:102CF00090E2980F983050F4877091E001C0990FDE
:102D00008A95EAF7892F0E94151EF0CF9BE5980F50
:102D1000933020F490E080E00C940815885A8731B5
:102D200020F490E080E00C941E1508951F93CF933B
:102D3000DF93182FEB010E944316209731F4812F67
:102D4000DF91CF911F910C946E168FE99FE0019750
:102D5000F1F700C000002197F0CF70E060E0893308
:102D600011F460E570E00C949616882321F00E941F
:102D70000F1E0C94521E0895882321F00E94151EE8
:102D80000C94521E0895BF92CF92DF92EF92FF9261
:102D90000F931F93CF93DF937C01D62FC72FFC0196
:102DA0000281158112951F700E94E41DD82E882380
:102DB000A1F0D02E002389F08C2F807F803429F061
:102DC00080E28D0FD12C883040F082E00E94A31E5B
:102DD0000E94E41D91E0D82ED926CC2EC2949FE00B
:102DE000C922FBE0FC1598F1EC2DF0E0EC55F64D16
:102DF0000C945A291C2F1F70C07F11F01295107F60
:102E00000023A9F0112359F080E28D0F883010F0D3
:102E1000D11109C0812F0E940F1E0E94521E8D2FBA
:102E20000E94431614C0812F0E94221EF6CF8D2FC0
:102E30000E946E16112359F080E28D0F883010F039
:102E4000D1112BC0812F0E94151E0E94521EEC2D05
:102E5000E850FF0B349720F40E94F1140E94C2073F
:102E6000DD2009F461C10E94E01D80FD5DC1F70114
:102E700012820E94DA1D0E94631CC7010E94B518CD
:102E80000E94DA1DDF91CF911F910F91FF90EF907B
:102E9000DF90CF90BF900C94841C812F0E94281E3D
:102EA000D4CF2C2F2F70B22EC07FC03219F0B29425
:102EB00080EFB822DD2339F0D13019F1002361F120
:102EC000112321F1ACCF002381F0111106C00E9423
:102ED000351E8B290E94B516BACF1130C1F70E945A
:102EE000351E8B290E943B1EB2CF111106C00E94D5
:102EF000481E8B2D0E94BC16AACF113009F4A7CF13
:102F0000F6CF002329F0163008F0A1CF8B2DE2CFA9
:102F1000153008F09CCFEDCF112359F3D93349F484
:102F20003FEF87EE93E0315080409040E1F700C0E2
:102F300000008D2F0E946E168ACF8C2F837009F0AF
:102F400041C0011184CF4D2F429546954770440FE3
:102F5000440F0D2F0F7010E030E020E0042E04C06D
:102F6000000F111F221F331F0A94D2F760E070E098
:102F7000CB01D4FF0FC06FE070E080E090E004C0B0
:102F8000660F771F881F991F4A95D2F76095709535
:102F900080959095C695C695C370602B712B822B3A
:102FA000932BC23049F058F4C13019F00E94171C1D
:102FB0004ECF0E94051C4BCF0E94291C48CF0E9477
:102FC000031C45CF8695002311F08C2F8170882338
:102FD00009F43DCF4D2F429546954770440F440F5D
:102FE0000D2F0F7010E030E020E0042E04C0000F21
:102FF000111F221F331F0A94D2F760E070E0CB014B
:10300000D4FF0FC06FE070E080E090E004C0660F76
:10301000771F881F991F4A95D2F760957095809504
:103020009095C695C695C370602B712B822B932B00
:10303000C23049F058F4C13019F00E94DA1C07CFB1
:103040000E94C81C04CF0E94EC1C01CF0E943D1CB2
:10305000FECECF70002329F08C2F0E94631C8D2F91
:1030600039CF8D2F0E94BC168C2F0E94841CEFCE6E
:10307000D23F89F160F4D03FC9F0D13F29F100235C
:1030800009F442C01111CBCE8C2F8F7121C0D33FD8
:1030900039F1D43FA1F7002369F1CF718C2F0E9441
:1030A000631C63E08C2F0E94881ED1CE002341F068
:1030B000153008F0CCCE8C2F8F710E94A71CC7CE84
:1030C000163008F0C4CEF7CF8C2F8F71002369F231
:1030D0000E94631CBCCE8C2F8F710023C9F3C5CF17
:1030E000002329F08C2F8F710E944E1CB0CE0E94BD
:1030F000491CADCE81E00E94A31E123008F4A7CE79
:1031000082E00E94A31EA3CE112359F0D93309F007
:1031100010CFEFEFF7EE23E0E150F0402040E1F771
:1031200006CF8C2F8F71A1CFDF91CF911F910F917F
:10313000FF90EF90DF90CF90BF9008950F931F9373
:10314000CF93DF93EC01688179818A810E94A21D6F
:103150008C010E94FE1C0E94021CB801CE01DF916E
:10316000CF911F910F910C94C316CF93DF93EC0175
:103170008B819C81892B29F08881998189238F3FBC
:1031800059F4DF91CF910895CE010E949E18CE018F
:10319000DF91CF910C94FE05CE010E94770681113C
:1031A000F3CF0E94E41D882361F38A81882349F3C9
:1031B00082E0DF91CF910C94A31E882321F00E941E
:1031C000221E0C94521E0895882321F00E94281E6E
:1031D0000C94521E08950E942F1E0E94321E0C94C1
:1031E000521E0E94D41D0C94EB180E941C1E0C94BD
:1031F000F118E92FE295EF70E250EE3070F4F0E054
:10320000E055F64D0C945A29803F19F020F4883E81
:1032100020F481E00895843FE1F380E00895883E42
:10322000C0F3813FD1F7F5CF93FB882780F908954C
:103230000E94981D0C94F918CF93DF9300D000D012
:103240000F92CDB7DEB70F900F900F900F900F90A9
:10325000DF91CF910895CF93DF9300D000D000D0BD
:10326000CDB7DEB726960FB6F894DEBF0FBECDBF42
:10327000DF91CF9108951F93CF93DF93C0911902EF
:1032800016E080911A028C1304C0DF91CF911F9138
:103290000895D0E01C9FF0011D9FF00D1124E55E04
:1032A000FD4F4081518162817381848195810E94AB
:1032B0002B192196C770E5CF40914B0250914C02DB
:1032C00060914D0270914E0280914F029091500298
:1032D0000C942B191F93CF93DF9380915002807F22
:1032E000A9F480914D02882389F080911902C09140
:1032F0001A0260914B0270914C02A0914E02B09163
:103300004F02D62FD72316E0C81304C0DF91CF9108
:103310001F91089590E0109711F0DF3F19F4019686
:103320008770F2CF189F9001199F300D1124F90179
:10333000E55EFD4F41814713F2CF40814613EFCF49
:1033400042814111ECCF438154814A1B5B0B483CC5
:10335000510528F7809150028F7080618093500250
:10336000F901E05EFD4F80818F70806180838BE486
:1033700092E00E94B518DF91CF911F910C943B19F8
:10338000AF92BF92CF92DF92EF92FF920F931F9373
:10339000CF93DF93CDB7DEB761970FB6F894DEBF5A
:1033A0000FBECDBF8C0185E0F801DE011D960190B6
:1033B0000D928A95E1F7F80140815181E2808BE41A
:1033C000C82E82E0D82E60914E0270914F02611596
:1033D000710509F44FC190914B0220914C02892F45
:1033E00082238F3F09F446C1A380B480F0904D0240
:1033F000F501E61BF70BFF2009F40AC1809150028A
:10340000382F307FE83CF10508F0C0C0311179C099
:10341000FE2C251323C0941321C0E1101FC08F7010
:103420008061809350020E945C19C6010E94B51809
:1034300080915002F80185838F2D61960FB6F89424
:10344000DEBF0FBECDBFDF91CF911F910F91FF90D7
:10345000EF90DF90CF90BF90AF900895AB2829F008
:10346000842F85238F3F09F021C180E0F82FF17070
:10347000DF2E80FF3CC08091190220911A0236E0B5
:10348000821315C04D875E878D859E850E94981D8D
:10349000292F22952F702230F0F0243018F59F70DC
:1034A000F1F0F8019581907FD1F4D12C1EC090E00D
:1034B000389FF001399FF00D1124E55EFD4F6181C9
:1034C000651306C06081641303C062816E110FC072
:1034D00001968770D5CF9F7011F0882331F3805EFD
:1034E000883018F3C8010E94B518FD2CA5CFEE2036
:1034F00009F4A2CF80915002816080935002F12C98
:103500009BCF251314C0941312C0E11010C0F80112
:103510008583C8010E94B51886E0F801ABE4B2E0EB
:1035200001900D928A95E1F70E945C1985CF4D8735
:103530005E878D859E850E941819882319F1EE20DB
:1035400009F180915002803270F020914B0230914D
:103550004C0238872F831986BB86AA868C87CE01BA
:1035600007960E94B51886E0F801ABE4B2E001903E
:103570000D928A95E1F70E946A190E945C19FF2456
:10358000F3945ACFC8010E94B518F9CF311113C076
:103590007A2DB98AA88A6E2D89890E941C198BE41C
:1035A00092E00E94B51886E0F60111928A95E9F73B
:1035B0000E945C19A4CF25130FC094130DC0E11015
:1035C0000BC0F8018583C8010E94B51886E0F6019A
:1035D00011928A95E9F730CF4D875E878D859E855C
:1035E0000E941819882371F2EE2061F28091500236
:1035F000803208F4B8CF20914B0230914C023A83CC
:1036000029831B82BD82AC828E83CE010196A9CF15
:10361000E83CF10510F5FE2CEE2009F4B3CF25139C
:103620000BC0941309C086E0F801ABE4B2E001904E
:103630000D928A95E1F700CF4D875E878D859E8537
:103640000E94181981118FCF809150028160809360
:103650005002C8010E94B518EFCE7A2DB98AA88A07
:103660006E2D89890E941C1986E0F60111928A95B7
:10367000E9F75ACFEE2009F485CF4D875E878D8517
:103680009E850E941819F82E882309F47BCF86E0C6
:10369000F801ABE4B2E001900D928A95E1F78BE47A
:1036A00092E00E943E160E946A193ECF81E08E256C
:1036B000DDCE1F93CF93DF93CDB7DEB72C970FB638
:1036C000F894DEBF0FBECDBF4F83588769877A87D6
:1036D0008B879C87CE0107960E94C019882369F0CA
:1036E0008A859B85892B39F04F815885842F8523C6
:1036F0008F3F09F071C016E05FC086E0FE0137968B
:10370000DE01119601900D928A95E1F78A859B85DD
:10371000892B89F38F81988589238F3F61F32091CD
:103720001A0230E0C9010196877099274091190269
:103730004817190671F40E94F51810921A02109297
:10374000190286E0EBE4F2E0DF011D928A95E9F7C9
:10375000D2CF96E0929FD001939FB00D1124A55E29
:10376000BD4FFE01319601900D929A95E1F780933D
:103770001A020E943B19BFCF819FC0011124855EB0
:103780009D4F0E94C0198823E9F0E09119021E9F05
:10379000F0011124E55EFD4F40815181628173810A
:1037A000848195810E942B198091190290E00196E5
:1037B00087709927809319028091190290911A02BB
:1037C0008913DACF2C960FB6F894DEBF0FBECDBFAB
:1037D000DF91CF911F91089569857A858B859C85AE
:1037E0000E942B1988CF08950C94F31B0E94F41BA0
:1037F00060937302709374028093750290937602C3
:103800000C94EB1808950C94F61B0F931F930091E2
:103810007302109174022091750230917602602B30
:10382000712B822B932B1F910F910C94F61B0F93EE
:103830001F930091730210917402209175023091D0
:10384000760260237123822393231F910F910C949E
:10385000F61B0F931F930091730210917402209135
:1038600075023091760260277127822793271F9176
:103870000F910C94F61B0C94D3040E943B1C609394
:103880006F027093700280937102909372020C9495
:10389000EB1860E070E0CB010C943D1C0F931F937C
:1038A00041E050E060E070E08A019B0104C0000F3D
:1038B000111F221F331F8A95D2F7C901B8011F912A
:1038C0000F910C943D1C0F931F9341E050E060E07A
:1038D00070E004C0440F551F661F771F8A95D2F70A
:1038E00080916F0290917002A0917102B09172026A
:1038F0008A019B01082B192B2A2B3B2BC901B801EC
:103900001F910F910C943D1C0F931F9341E050E0C9
:1039100060E070E004C0440F551F661F771F8A9552
:10392000D2F7CB01BA016095709580959095009182
:103930006F02109170022091710230917202602327
:103940007123822393231F910F910C943D1C0F939D
:103950001F9341E050E060E070E004C0440F551F49
:10396000661F771F8A95D2F780916F02909170023F
:10397000A0917102B09172028A019B010827192758
:103980002A273B27C901B8011F910F910C943D1CB8
:103990000F931F9300916F0210917002209171029A
:1039A00030917202602B712B822B932B1F910F9100
:1039B0000C943D1C0F931F9300916F0210917002A5
:1039C000209171023091720260237123822393232C
:1039D0001F910F910C943D1C0F931F9300916F0248
:1039E000109170022091710230917202602771274C
:1039F000822793271F910F910C943D1C0895E92F66
:103A0000EE0FE90FEE0F8E0F982F977041E001C077
:103A1000440F9A95EAF786958695869595E0899F55
:103A2000F0011124EF5AFD4F30E020E070E0519199
:103A3000DF011197CB01022E02C0969587950A945B
:103A4000E2F7817081958527842385278C932F5FEA
:103A50003F4F2530310559F70895E92FEE0FE90F53
:103A6000EE0F8E0F982F977086958695869525E098
:103A7000829FF0011124EF5AFD4F50E040E080E0BA
:103A8000219130E0092E02C0369527950A94E2F77D
:103A900021703327042E01C0220F0A94EAF7822BEB
:103AA0004F5F5F4F4530510559F70895BF92CF9250
:103AB000DF92EF92FF920F931F93CF93DF938C01CE
:103AC000C0906F02D0907002E0907102F09072028C
:103AD0008091730290917402A0917502B091760268
:103AE000C82AD92AEA2AFB2ACFE1D0E0BC2ED70186
:103AF000C6010C2E04C0B695A795979587950A9494
:103B0000D2F780FD0EC0219788F7B12C8B2DDF9165
:103B1000CF911F910F91FF90EF90DF90CF90BF90CA
:103B20000895B8018C2F0E94DE07019761F3EECF54
:103B3000CF93DF93EC010E94561DBE01DF91CF9120
:103B40000C94DE071F93CF93DF93EB019091180243
:103B5000992331F0CB01DF91CF911F910C94981DE7
:103B6000882379F0CB010E94561D182F682FCE01B3
:103B70000E94FF1CBE01812FDF91CF911F910C94F9
:103B8000DE07CB010E942D1D182FF4CF682F8091E6
:103B90007801909179010C94BF1F682F8091780172
:103BA000909179010C94C11F8091780190917901D5
:103BB0000C94C31F8091770285958595859508950E
:103BC000809177028770089590917702977081E0D5
:103BD00009F480E008959091910292FB222720F948
:103BE000281751F080FB92F99093910280919002F6
:103BF000909191020C94EC1E08958091910282FBA9
:103C0000882780F991E089270C94EB1D81E00C94C2
:103C1000EB1D80E00C94EB1D809183020895909140
:103C20008302892B8093830208958095909183026B
:103C300098239093830208951092830208958091AF
:103C40008202089590918202892B809382020895C6
:103C50008095909182029823909382020895109209
:103C60008202089510928102089580917802089549
:103C700008950C94381E9091910292FD08C0909185
:103C80007802981721F0809378020C94391E0895D9
:103C900080917802882329F01092780280E00C94B9
:103CA000391E0895E0917801F091790180918302A5
:103CB0008083E0917801F091790180819091820276
:103CC000892B8083E0917801F09179018081909136
:103CD0008102892B808390917802992381F0E09171
:103CE0007801F09179018081892B8083809178011E
:103CF000909179010E94771F81110E94481E809146
:103D00007801909179010C94FD1408950C94851E0E
:103D10009091910292FD10C098E0899F900111242A
:103D2000622B609377020E94631C809177028595D5
:103D3000859585950C94861E0C94631C10927702D1
:103D400080E00C94861E9091770280958923809361
:103D50007702282F277039F4282F082E000C330BF8
:103D60009217130621F49091910292FF07C0859556
:103D7000859585950E94841C0C949E1E089580E074
:103D8000089590E080E00E94682921E08A3E9E4FDD
:103D900009F020E0822F089582E090E00C946029E1
:103DA000682F82E090E00C946E2983E090E00C9400
:103DB0006029682F83E090E00C946E29CF9384E013
:103DC00090E00E946029C82F82E290E00E94602962
:103DD000982F8C2FCF910895CF93C92F682F84E00F
:103DE00090E00E946E296C2F82E290E0CF910C94BB
:103DF0006E29AB01BC018FE090E00C948029AB01EF
:103E0000BC0183E190E00C94802960E070E0CB017C
:103E10000C94FF1E60E070E0CB010E94F91E0C9430
:103E2000051F6AEE7EEF90E080E00E948C2960E042
:103E300082E090E00E946E2960E083E090E00E94C2
:103E40006E291092730210927402109275021092F1
:103E5000760260E084E090E00E946E2960E082E2F9
:103E600090E00E946E2960E085E090E00E946E295B
:103E700060E086E090E00E946E296FEF87E090E0BE
:103E80000E946E2940E050E0BA0188E090E00E9474
:103E9000802960E08DE090E00E946E2940E050E0D3
:103EA000BA0188E190E00E94802960E087E190E01B
:103EB0000E946E2940E050E0BA018CE190E00E943F
:103EC000802970E060E080E290E00E948C2940E070
:103ED00050E0BA0188E190E00E9480290C940A1F0A
:103EE0000C94111F682F8EE090E00C946E299C01B9
:103EF0002E5F3F4FAC01485F5F4F80E024173507CE
:103F000009F40895F90191919F019923B9F38F5F05
:103F1000F5CF662349F0FC013296089621912617C9
:103F200029F0E817F907D1F780E0089581E00895B6
:103F30009C01FC0132969FEF80E04191461751F0C1
:103F40009F3F19F4411101C0982F8F5F8630A9F768
:103F50009F3F09F40895290F311D97FD3A95F90106
:103F600062830895FC01329608962191261303C0BE
:103F7000DF0111971C92E817F907B9F708950C941F
:103F8000981F0C94B21F029626E0FC0111922A950C
:103F9000E9F70895089508950C94CB1F8091B0021D
:103FA000843049F10E94CC1F80E00E94C207109229
:103FB000850288E190E020E40FB6F894A8958093FC
:103FC00060000FBE2093600083B7817F846083BF51
:103FD00083B7816083BF7894889583B78E7F83BFD2
:103FE0000FB6F894A8958091600088618093600076
:103FF000109260000FBE08950895CF930E94CA1FCB
:104000000E94D60B0E94FC1FC0E08C2F0E94030B65
:10401000811105C0CF5FC830C1F7CF91089581E00D
:10402000FCCF08950C9411200E94F5180E94F11401
:104030000E94C2070C9412201F921FB61F921124D7
:104040008F939F93AF93BF9380918502811113C08B
:104050008091A4029091A502A091A602B091A7021E
:104060004196A11DB11D8093A4029093A502A09337
:10407000A602B093A702BF91AF919F918F911F901D
:104080001FBE1F90189582E084BD93E095BD9AEF06
:1040900097BD80936E0008952FB7F8948091A40285
:1040A0009091A502A091A602B091A7022FBF0895FA
:1040B0002FB7F8946091A4027091A5028091A60296
:1040C0009091A7022FBF08959C014FB7F89480915B
:1040D000A4029091A502A091A602B091A7024FBFA1
:1040E000821B930B089578941F921FB61F92112480
:1040F0008F939F93AF93BF938091A4029091A50259
:10410000A091A602B091A7020196A11DB11D8093B6
:10411000A4029093A502A093A602B093A702BF9118
:10412000AF919F918F911F901FBE1F901895109275
:10413000A8021092A9021092AA021092AB0208954E
:10414000CF92DF92EF92FF926B017C010E948F0C65
:1041500081110EC00E945820C61AD70AE80AF90A2F
:10416000C092A802D092A902E092AA02F092AB02F9
:10417000FF90EF90DF90CF9008950F931F930E94D0
:104180008F0C882321F01F910F910C9458200E94CE
:1041900058200091A8021091A9022091AA02309102
:1041A000AB02600F711F821F931F1F910F91089523
:1041B00087E797E7909301088093000888E19AE0E9
:1041C0000FB6F894A895809360000FBE909360009E
:1041D000FFCF9093B7018093B601089580918E022E
:1041E000089508950895CF93DF93EC0181E08093C3
:1041F000E9008FEF9091E800815095FD06C095EDA4
:104200009A95F1F700008111F5CF8091E80085FFC4
:1042100014C050E040E068E070E0CE010E9412233C
:104220008091E8008E778093E80088E0FE01A6E8A0
:10423000B2E001900D928A95E1F7DF91CF91089558
:1042400008958091AF02811109C00E94A2240E94AA
:10425000FF248091E20084608093E2000895109230
:10426000AF02089508950895089542E061EC81E059
:104270000E941E2442E061EC82E00E941E2442E182
:1042800060E884E00E941E2442E161E883E00C942F
:104290001E248091B202833009F460C048F481305A
:1042A000C9F1823009F4A2C08AE791E00C948A280F
:1042B0008A3009F48AC08B3009F46DC08930A1F7C7
:1042C0008091B102813281F78091B5029091B6025E
:1042D000892B51F78091E800877F8093E8008091D7
:1042E000E80082FF36C09091F3008091F2000297BF
:1042F00029F48091F1008B7F813021F48091F100CD
:1043000080938E028091E8008B778093E8000E9472
:104310005224CACF8091B102813A31F68091E800EF
:10432000877F8093E8008091B5029091B602892B37
:1043300061F468E086E892E070E00E946123809179
:10434000E8008B778093E800AFCF60E090E080E0FA
:10435000F3CF8091B0028111C2CF08958091B10254
:10436000813A09F0A1CF8091B5029091B602892BD4
:1043700009F09ACF8091E800877F8093E8008091D0
:10438000E80080FFFCCF80919F018093F100809135
:10439000E8008E77BACF8091B102813209F084CFE4
:1043A0008091B5029091B602892B09F07DCF809162
:1043B000E800877F8093E8000E9452248091B30236
:1043C00080939F010E94F5186FCF8091B1028132D6
:1043D00009F06ACF8091E800877F8093E8000E940F
:1043E00052248091B40280938F025ECF8091B102FB
:1043F000813A09F059CF8091E800877F8093E800E7
:104400008091E80080FFFCCF80918F02BECF82E0D8
:1044100090E090938D0180938C018AE791E00C9459
:1044200041280895CF93DF938AE791E00E94E8271F
:10443000EC01209719F4DF91CF9108958AE791E07C
:104440000E9411280E9411222197F3CFCF93C0918F
:10445000E9002091EC00922F917020FD90E82091CE
:104460008A0120FF12C0CF70C92B90917B019F70F1
:104470009093E9009091EB0090FF04C09091EE00C2
:1044800097FD05C0CF70C093E900CF9108959FEFCD
:104490002091E800915025FD06C025ED2A95F1F701
:1044A00000009111F5CF8093F1008AE791E00E941E
:1044B000A3278091E80080FFE5CF8091E8008E7708
:1044C0008093E800DFCF84B7877F84BF0FB6F8946E
:1044D000A8958091600088618093600010926000D0
:1044E0000FBE80E890E00FB6F8948093610090933F
:1044F00061000FBE0E9455150E94A2240E94FF2455
:104500008091E20084608093E20078940E94882782
:104510000E94671585E991E00E94EC140E94072231
:104520008091B0028530C9F00E9471150E9412225C
:104530008AE791E00E94D1270E946315F1CF0E9483
:10454000CE1F8091AE02882341F00E94FD1F882378
:1045500021F00E94FC220E94F5188091B002853063
:1045600071F30E941420E0CF0C94B622292F332738
:1045700023303105C9F058F42130310599F122304A
:104580003105A9F190E080E030E020E01DC021324B
:10459000310509F122323105A9F780E490E023EDDD
:1045A00038E0672B79F710C099278130910581F0A9
:1045B000009729F0029731F7EEE3F8E002C0EEE54C
:1045C000F8E0849190E09F01FA01318320830895FF
:1045D000ECE4F8E0F6CF89E090E024E738E0672BE0
:1045E00089F6F2CF82E190E021EC38E0EDCF8FE563
:1045F00090E022E638E0E8CF80E189BD82E189BD24
:1046000009B400FEFDCF8091D8008F7D8093D80043
:104610008091E00082608093E0008091E00081FD65
:10462000FCCF0895AF92BF92CF92DF92FF920F938B
:104630001F93CF93DF936C01EB018A010E947124D9
:10464000F82E811123C00115110539F0F801808180
:104650009181C81BD90BC80ED91EB12CA12C209753
:10466000A9F08091E80085FD22C08091E8008E7756
:104670008093E80001151105A1F0F8018081918176
:10468000A80EB91EB182A08285E0F82E8F2DDF9191
:10469000CF911F910F91FF90DF90CF90BF90AF907F
:1046A00008950E9471248823D1F2F82EEFCFF601ED
:1046B00081916F018093F1002197FFEFAF1ABF0A3C
:1046C000CECFFC018091B7029091B8028617970770
:1046D000A0F06115710529F49091E8009E77909300
:1046E000E80090E06115710551F4911108C08091C6
:1046F000E80082FF34C080E00895BC01F2CF8091D1
:10470000B0028823C1F18530C1F18091E80083FDBA
:1047100030C08091E80082FDEACF8091E80080FF00
:10472000E1CF8091F3002091F200382F61157105DF
:1047300019F02830310558F091E02830310509F0A2
:1047400090E02091E8002E772093E800CBCF819174
:104750008093F100615071092F5F3F4FE7CF809147
:10476000B002882341F0853041F08091E80083FF5A
:10477000BECF81E0089582E0089583E00895FC01B2
:104780008091B7029091B80286179707A0F0611543
:10479000710529F48091E8008E778093E80090E01D
:1047A0006115710551F4911108C08091E80082FFF4
:1047B00035C080E00895BC01F2CF8091B00288231B
:1047C000C9F18530C9F18091E80083FD31C0809145
:1047D000E80082FDEACF8091E80080FFE1CF809180
:1047E000F3002091F200382F6115710519F028307F
:1047F000310558F091E02830310509F090E08091C2
:10480000E8008E778093E800CBCF84918093F1000D
:104810003196615071092F5F3F4FE6CF8091B00212
:10482000882341F0853041F08091E80083FFBDCFBF
:1048300081E0089582E0089583E00895982F9730ED
:1048400028F08F708093E90081E008959093E9004B
:10485000242F762F50E0981731F07091EC002091C2
:10486000ED005091F00021FD02C09F5FE8CF309134
:10487000EB003E7F3093EB003091ED003D7F3093B5
:10488000ED003091EB0031603093EB007093EC0061
:104890002093ED005093F0002091EE0027FDE5CF2E
:1048A00080E008958091B10287FF13C08091E800F5
:1048B00082FF06C08091E8008B778093E80004C0F7
:1048C0008091B0028111F2CF08958091B0028823C7
:1048D000D9F38091E80080FFF8CF8091E8008E77CF
:1048E000ECCF2091E4003091E50095E6A9012091FC
:1048F000EC00822F817020FF06C08091E80080FFCD
:1049000006C080E008952091E80022FD1AC0809141
:10491000B002882389F0853089F08091EB0085FD15
:104920000FC02091E4003091E50042175307F9F2DF
:104930009150E1F684E0089582E0089583E00895BF
:1049400081E008950E9410250E941825E0EEF0E015
:10495000808181608083E8EDF0E080818F778083C3
:1049600019BCA7EDB0E08C918E7F8C9380818F7EF7
:1049700080831092AF0208950F931F93CF93DF931C
:104980000E9410250E941825C8EDD0E088818F77FD
:10499000888388818068888388818F7D888319BC1B
:1049A0001092B0021092AC021092AE021092AD02C0
:1049B00000EE10E0F80180818B7F80838881816028
:1049C000888342E060E080E00E941E24E1EEF0E097
:1049D00080818E7F8083E2EEF0E080818160808341
:1049E000808188608083F80180818E7F80838881C8
:1049F00080618883DF91CF911F910F910895E8ED39
:104A0000F0E080818F7E8083E7EDF0E0808181603F
:104A1000808384E082BF81E08093AF020C94BC2449
:104A2000E8EDF0E080818E7F80831092E2000895AF
:104A30001092DA001092E10008951F920F920FB6C3
:104A40000F9211242F933F934F935F936F937F9314
:104A50008F939F93AF93BF93EF93FF938091E10068
:104A600082FF0BC08091E20082FF07C08091E100CD
:104A70008B7F8093E1000E9487278091DA0080FF7E
:104A800019C08091D80080FF15C08091DA008E7F18
:104A90008093DA008091D90080FF96C080E189BDC3
:104AA00082E189BD09B400FEFDCF81E08093B002B0
:104AB0000E9421218091E10080FF19C08091E200D5
:104AC00080FF15C08091E2008E7F8093E20080918C
:104AD000E20080618093E2008091D8008062809340
:104AE000D80019BC85E08093B0020E9433218091E8
:104AF000E10084FF2BC08091E20084FF27C080E1A9
:104B000089BD82E189BD89B5982F917080FFFBCF67
:104B10008091D8008F7D8093D8008091E1008F7EB6
:104B20008093E1008091E2008F7E8093E20080918B
:104B3000E20081608093E2008091AC02882309F456
:104B400049C084E08093B0020E9434218091E1004A
:104B500083FF29C08091E20083FF25C08091E1009E
:104B6000877F8093E10082E08093B0021092AC02D4
:104B70008091E1008E7F8093E1008091E2008E7F42
:104B80008093E2008091E20080618093E20042E045
:104B900060E080E00E941E248091F0008860809395
:104BA000F0000E943221FF91EF91BF91AF919F9150
:104BB0008F917F916F915F914F913F912F910F90C6
:104BC0000FBE0F901F90189519BC1092B0020E9452
:104BD0002F2170CF8091E30087FD93E09093B00286
:104BE000B3CF1F920F920FB60F9211242F933F93C2
:104BF0004F935F936F937F938F939F93AF93BF93E5
:104C0000CF93DF93EF93FF93D091E900DF70809112
:104C1000EC00C82FC17080FDC0E81092E9008091BF
:104C2000F000877F8093F00078940E9435261092E0
:104C3000E9008091F00088608093F000CD2BCF7068
:104C4000C093E900FF91EF91DF91CF91BF91AF91B8
:104C50009F918F917F916F915F914F913F912F9194
:104C60000F900FBE0F901F9018951F93CF93DF9357
:104C7000CDB7DEB7AA970FB6F894DEBF0FBECDBF93
:104C800081EB92E02091F100FC012193CF01F2E051
:104C9000893B9F07B9F70E9449218091E80083FF73
:104CA0001EC18091B1029091B2029A3008F017C1F2
:104CB000E92FF0E0E254F64D0C945A29803899F02F
:104CC000823809F00CC18091B5028F70873008F0EE
:104CD00006C18093E9008091EB0085FB882780F96D
:104CE0001092E90006C08091AD029091AE02911140
:104CF00082609091E800977F9093E8008093F100A4
:104D00001092F1008091E8008E77E5C0882309F4C5
:104D1000D3C0823009F0E3C08091B3028111D6C0C4
:104D20008091B5028F702FEF280F263008F0D7C082
:104D30008093E9002091EB0020FFC8C0933031F44C
:104D40008091EB0080628093EB00C0C09091EB00FB
:104D500090619093EB0021E030E001C0220F8A9532
:104D6000EAF72093EA001092EA008091EB00886055
:104D7000EACF8111B4C01091B3021F778091E30094
:104D80008078812B8093E3008091E800877F809377
:104D9000E8000E9452248091E80080FFFCCF8091BF
:104DA000E30080688093E30082E0111183E0809348
:104DB000B00295C08058823008F091C08091B30253
:104DC0009091B4028C3D23E09207A1F583E08A83A1
:104DD0008AE289834FB7F894DE01139620E03EE023
:104DE00051E2E32FF0E050935700E49120FF03C01D
:104DF000E295EF703F5FEF708E2F90E0EA30C0F0E9
:104E0000C7968D939D932F5F243159F74FBF8091A3
:104E1000E800877F8093E8006AE270E0CE010196A7
:104E20000E9461238091E8008B778093E80057C04F
:104E3000C096E7CF6091B5027091B602AE014F5FA8
:104E40005F4F0E94B422BC01892B09F448C09091A5
:104E5000E800977F9093E80089819A810E94BF23A0
:104E6000E1CF8038E1F58091E800877F8093E8000A
:104E70008091AC028093F10045CF811130C09091B8
:104E8000B302923060F58091E800877F8093E8005C
:104E90009093AC020E9452248091AC02882311F0BE
:104EA00084E005C08091E30087FDFACF81E0809324
:104EB000B0020E94352113C08091B302813079F491
:104EC00081E0933009F080E08093AE021092E90017
:104ED0008091E800877F8093E8000E9452248091AF
:104EE000E80083FF0AC08091E800877F8093E80094
:104EF0008091EB0080628093EB00AA960FB6F89445
:104F0000DEBF0FBECDBFDF91CF911F9108950895F1
:104F1000CF938091B0028823A1F0C091E900CF70B7
:104F20009091EC00892F817090FD80E8C82B109241
:104F3000E9008091E80083FD0E943526CF70C09380
:104F4000E900CF9108952091B002243041F5FC0191
:104F50004489558966897789452B462B472BF9F07B
:104F600081818F708093E9009091F3008091F2002D
:104F7000892B11F480E008959091E8008091E80079
:104F80008E778093E80095FDF5CF0E947124811102
:104F900007C09091E8009E779093E800089582E022
:104FA00008952091B002243091F4FC014489558980
:104FB00066897789452B462B472B49F021812F7035
:104FC0002093E9002091E80020FD0C94A327089588
:104FD0002091B002243019F090E080E00895FC01A7
:104FE0004489558966897789452B462B472BA1F340
:104FF00086818F708093E9008091E80082FFECCF7A
:105000009091F3008091F200009731F42091E80034
:105010002B772093E80008959091F3008091F2009F
:1050200008952091B002243019F08FEF9FEF08957A
:10503000FC014489558966897789452B462B472B86
:10504000A1F386818F708093E9008091E80082FF50
:10505000ECCF9091F3008091F200892B79F0809150
:10506000F10090E03091F3002091F200232B29F41D
:105070002091E8002B772093E80008958FEF9FEFB1
:10508000F1CF0F931F93CF93DF93CDB7DEB7289760
:105090000FB6F894DEBF0FBECDBF8C018091B00279
:1050A000843059F5F80184899589A689B789892BB7
:1050B0008A2B8B2B11F183858F708093E90088E018
:1050C000E0EAF1E0DE01119601900D928A95E1F798
:1050D00050E040E068E070E0CE0101960E941223AB
:1050E00050E040E062E070E0C80142960E94122366
:1050F0008091E8008E778093E80028960FB6F894A8
:10510000DEBF0FBECDBFDF91CF911F910F910895EC
:1051100008950895CF93DF93EC018091E80083FF19
:1051200010C028818091B5029091B6022817190607
:1051300041F48091B2028132F1F030F4803209F40E
:1051400050C0DF91CF910895823209F47EC083323E
:10515000C1F78091B1028132A1F78091E800877F89
:105160008093E8000E9452246091B302CE01DF9147
:10517000CF910C9489288091B102813A11F78091E6
:10518000E800877F8093E8008091E80080FFFCCFF3
:105190008C899D89AE89BF898093F100492F5A2F50
:1051A0006B2F77274093F100AD0166277727409357
:1051B000F1008B2F9927AA27BB278093F100888DB8
:1051C0008093F100898D8093F1008A8D8093F100A6
:1051D0008091E8008E778093E800DF91CF910C9466
:1051E00052248091B102813209F0ABCF8091E80066
:1051F000877F8093E8008091E80082FF21C0309192
:10520000F1002091F1009091F1008091F1003C8B30
:105210002D8B9E8B8F8B8091F100888F8091F10078
:10522000898F8091F1008A8F8091E8008B7780933D
:10523000E8000E945224CE01DF91CF910C9488287F
:105240008091B0028111D7CF7CCF8091B1028132A1
:1052500009F077CF8091E800877F8093E8000E9473
:1052600052248091B3029091B402998B888BCE0125
:10527000DF91CF910C9488280E94A2241092B00252
:105280000895E8EDF0E08081806180838AE18A956D
:10529000F1F700C08091D90081700895991B79E0E1
:1052A00004C0991F961708F0961B881F7A95C9F7B6
:1052B00080950895EE0FFF1F0590F491E02D09945D
:1052C000F999FECF92BD81BDF89A992780B50895CE
:1052D000A8E1B0E042E050E00C949429262FF9991F
:1052E000FECF92BD81BDF89A019700B4021639F045
:1052F0001FBA20BD0FB6F894FA9AF99A0FBE089516
:105300000396272F0E946F290E946E29252F0E9445
:105310006F29242F0C946F290196272F0E946F2943
:105320000C946E29DC01CB01FC01F999FECF06C07B
:10533000F2BDE1BDF89A319600B40D924150504053
:10534000B8F70895F894FFCFFA16FA1651175117C7
:1053500027172717271727179D17291838183818C0
:10536000041904190D190D190F190D190D190D191D
:105370000419041914190D190D1914195E2686261D
:105380006F2786266F27B926DA266F2731273D2714
:1053900083119311A3110000000000000000000021
:1053A00000000000640183119311A31100000000AC
:1053B0000000000000000000000060018311931154
:1053C000A311000000000000000000000000000029
:1053D0005C0183119311A311000000000000000084
:1053E00000000000000058012D002E0038003100A0
:1053F0003700300036002F00E8003900000101FFBF
:10540000F60104F70104FB01790201831000000199
:1054100004100000018208000001000000000000EC
:105420000000000000EE20F320F120F220202101F6
:10543000A120000000000200F4F5F6F73133946675
:0654400097C60000000009
:00000001FF
