:100000000C9473030C94BA030C94BA030C94BA03C3
:100010000C94BA030C94BA030C94BA030C94BA036C
:100020000C94BA030C94BA030C9427280C94F92866
:100030000C940D1E0C94BA030C94BA030C94BA03DE
:100040000C94BA030C94BA030C94BA030C94BA033C
:100050000C94BA030C94751E0C94BA030C94BA0356
:100060000C94BA030C94BA030C94BA030C94BA031C
:100070000C94BA030C94BA030C94BA030C94BA030C
:100080000C94BA030C94BA030C94BA030C94BA03FC
:100090000C94BA030C94BA030C94BA030C94BA03EC
:1000A0000C94BA030C94BA030C94BA0312131213EF
:1000B000441344138A13AA132E152E15EC13891416
:1000C0009A149A14FA1403152E152715BE15BE1589
:1000D000D015D015C715D015D015D015BE15BE1525
:1000E000CC15D015D015CC1566298D297F2A8D29E0
:1000F0007F2AD929FC297F2A522A612A0A00253021
:10010000313662003A200025303258000A722F63DF
:100110002030313233343536373839414243444563
:10012000460A006D63703233303137206465617484
:100130007461636865642121210A006D6370323344
:100140003031372061747461636865642121210A4C
:100150000035003A003B003C003D003E003F0040BF
:10016000004100420043004400450031002B0014D0
:10017000001A000900130005004A004B000D000F93
:100180000018001C0033004C0029000400156816FC
:100190006417610A00000000000E00117108740C61
:1001A0007812002A00E1001D001B0006000700195C
:1001B000004D004E0010000B0036003700380034B0
:1001C000722F002F02260236022D000000000000D0
:1001D0000000002E00370227023002300000002C01
:1001E00041070700000000000000000000000000C0
:1001F000000000006F28420000A800680069006A43
:10020000006B006C006D006E006F0070007100727A
:10021000007300AE0053001E001F002000210022CA
:1002200000AB00A900230024002500260027004978
:100230000039000000000000000000000000000085
:100240000000000000000000000000000047000067
:10025000000000000000000000AC00AA0000000048
:10026000000000000000000000000000000000008E
:10027000000000000000000000000000000000007E
:10028000000000000000000000010000000000006D
:10029000000000000000000000000000000000005E
:1002A000000000000000000000000000000000004E
:1002B0000000000000000000000000000000001E20
:1002C000021F02200221022202F900000023022460
:1002D000022502310238024C050000F200F100F064
:1002E00000F3000000000000000000500051005228
:1002F000004F0000000000000000000000000000AF
:1003000000FA0000000000000000000000000000F3
:1003100000000000000000000000000000000000DD
:10032000000000000000000000000000000000F4D9
:1003300000F500FD00FE00F600FF000000000000D8
:1003400000000001000000000044454255473A20EB
:1003500064697361626C65642E0A004445425547C6
:100360003A20656E61626C65642E0A00556E6963A1
:100370006F646520696E707574206D6F646520739D
:10038000657420746F3A2025750A00556E69636F95
:10039000646520696E707574206D6F646520696E88
:1003A000697420746F3A2025750A006261636B6C72
:1003B0006967687420737465703A2025750A006255
:1003C00061636B6C696768742064697361626C65F2
:1003D0000A006261636B6C6967687420656E6162B4
:1003E0006C650A006261636B6C6967687420746F86
:1003F00067676C653A2025750A006261636B6C69FA
:100400006768742064656372656173653A20257559
:100410000A006261636B6C6967687420696E63725D
:10042000656173653A2025750A000A002530325847
:1004300020006B6579626F6172645F7265706F72C4
:10044000743A20000A0025303258006B6579626FDB
:100450006172645F7365745F6C65643A2000646503
:100460006C5F6B65795F6269743A2063616E2774B3
:100470002064656C3A20253032580A006164645F5C
:100480006B65795F6269743A2063616E27742061DD
:1004900064643A20253032580A00646F6E652E0A73
:1004A00000626F6F746D61676963207363616E3A98
:1004B000202E2E2E2000290A002575002F002575DC
:1004C000005D2800256400200025640020002564CC
:1004D0000020002564007C0025303258006D6F75C7
:1004E00073656B6579205B62746E7C782079207609
:1004F00020685D287265702F61636C293A205B006B
:100500005B735D004B6579626F6172642073746127
:1005100072742E0A005B575D005B535D005B525D99
:10052000005B445D005B435D000403300000000E8F
:100530000348006F00740044006F00780000001250
:10054000035A002E0050002E005A002E004F002E9D
:100550000000000403090409025B00030100A0FA83
:100560000904000001030101000921110100012219
:1005700040000705810308000A0904010001030087
:10058000000009211101000122C00007058203209B
:10059000000A090402000203000000092111010001
:1005A0000122220007058303200001070503032021
:1005B00000011201100100000008EDFE1DE1010024
:1005C000010203010631FF0974A101097515002616
:1005D000FF009520750881020976150026FF009519
:1005E0002075089102C005010902A10185020901D7
:1005F000A1000509190129051500250195057501B9
:1006000081029501750381010501093009311581C8
:10061000257F95027508810609381581257F95018A
:1006200075088106050C0A38021581257F9501752C
:10063000088106C0C005010980A10185031A810057
:100640002A8300160100260300950175108100C061
:10065000050C0901A10185041A01002A9C0216015A
:1006600000269C02950175108100C005010906A1B4
:10067000018505050719E029E7150025019508758D
:100680000181020507190029EF1500250195F07574
:100690000181020508190129059505750191029549
:1006A0000175039101C005010906A101050719E0C3
:1006B00029E7150025019508750181029501750846
:1006C00081010507190029FF150026FF0095067511
:1006D0000881000508190129059505750191029504
:1006E0000175039101C011241FBECFEFDAE0DEBF18
:1006F000CDBF04B603FE27C08091E9029091EA02C3
:10070000A091EB02B091EC028730904BA740B04B28
:10071000D1F41092E9021092EA021092EB021092C8
:10072000EC0214BE84B7877F84BF0FB6F894A895F7
:1007300080916000886180936000109260000FBE1D
:10074000E0E0F8E3099511E0A0E0B1E0E8EFF6E5BC
:1007500002C005900D92A438B107D9F722E0A4E8B1
:10076000B1E001C01D92A93EB207E1F70E94472502
:100770000C947A2B0C940000FF93EF93E09184018A
:10078000F0918501309709F00995EF91FF91089557
:10079000FC018591803011F0EFDFFBCF0895FF273A
:1007A000E0E230E247FF0CC0419597FF09C0EDE25F
:1007B0006095709580959095611D711D811D911DAD
:1007C00027FF02C0219530E350E2AA27660F771F6A
:1007D000881F991FAA1FA41710F0A41B63955A9590
:1007E000A9F7AA3008F0A95FA05DAF93F395611552
:1007F00071058105910541F7ED3211F4EF93F39501
:10080000F21718F43F93F395FBCF8F91B5DFFA956C
:10081000E1F70895E991F9918591803021F08532D1
:1008200019F0AADFF9CF089520E0E89455915532E8
:10083000C1F3503311F4689455915A3348F450532E
:1008400090F3220F022E220F220F200D250FF4CF3E
:100850000EF4219589919991533619F3533729F163
:10086000533559F1BC0188279927E8945C3621F467
:100870008991999168945591543639F446EF7EF0F8
:1008800077FF0DC08FEF9FEF0AC055374AE039F070
:10089000583540E121F0523642E009F00895FF93C7
:1008A000EF937DDFEF91FF91B7CFFF93EF93FC01C3
:1008B00081918030B9F360DFFBCFFF93EF9368DF66
:1008C000F1CFDF93CF93CDB7DEB72596A3DFCF91DE
:1008D000DF91089580B38C7080BB81B38C7081BB35
:1008E0000C94D90684B1807F84B985B18F6085B9B5
:1008F0008AB1837F8AB98BB18C608BB93E98469A56
:100900000C941F07089508950C9483040E946A04B0
:100910000E947204EAEDF1E086E891E011921192F2
:1009200020E030E0DC01A20FB31F1C922F5F3F4F8D
:100930002E303105B9F70E9621E08A3D920771F706
:100940000C9466080E946A040E947204EAEDF1E0C9
:1009500011821082138212821582148217821682EB
:10096000118610861386128608959EE0899FB00135
:10097000112420E030E040E050E0A1E0B0E0F901D7
:10098000E60FF71FEA57FE4F9081992319F0915017
:10099000908309C0CD01022E02C0880F991F0A94CE
:1009A000E2F7482B592B2F5F3F4F2E30310539F797
:1009B000CA010895CF932EE0629FB001112420E078
:1009C00030E0A1E0B0E0C5E0AD01022E02C0440F6E
:1009D000551F0A94E2F748235923452B31F0F901BA
:1009E000E60FF71FEA57FE4FC0832F5F3F4F2E30B1
:1009F000310551F7CF910895CF92DF92EF92FF9298
:100A00000F931F93CF930E94FB068AEDC82E81E0BF
:100A1000D82EC0E0C33091F038F4C13091F0C2302C
:100A200099F4859A8D9812C0C43029F0C53061F4CC
:100A3000809A88980BC0819A899808C0849A8C986B
:100A400005C0869A8E9802C0879A8F988C2F0E9434
:100A5000DD0680EA8A95F1F78C2F0E94B5047C01AF
:100A60000E945507282F30E0369903C080E890E0B7
:100A700002C080E090E04B9903C000E011E002C0AA
:100A800000E010E0082B192B4A9903C080E092E0A7
:100A900002C080E090E0082B192B1B9903C040E0B6
:100AA00054E002C040E050E0042B152B1A9903C01B
:100AB00060E078E002C060E070E0062B172B199927
:100AC00003C080E090E102C080E090E0082B192B89
:100AD000189903C040E050E202C040E050E0F60147
:100AE00080819181042B152B022B132B0E211F21AA
:100AF000E094F094E822F9220E291F296C2F802718
:100B000091270E94DA04F601019311936F010E946C
:100B10006A04CF5FC63009F07DCF0E94720881E081
:100B2000CF911F910F91FF90EF90DF90CF9008959C
:100B3000E82FF0E0EE0FFF1FE652FE4F808191811B
:100B40000895CF92DF92EF92FF920F931F93CF936E
:100B5000DF938CE091E00E94C8038AEDE82E81E0EB
:100B6000F82EC0E0D0E097E0C92E91E0D92E0EEF2C
:100B700010E0DF93CF93DF92CF920E94610484E074
:100B800091E00E94C803F701819191917F010E9439
:100B9000311C9F938F931F930F930E9461048CEFDE
:100BA00090E00E94C80321968DB79EB708960FB6B5
:100BB000F8949EBF0FBE8DBFC630D105D1F6DF9130
:100BC000CF911F910F91FF90EF90DF90CF900895FC
:100BD0001092B9008CE08093B8000895EF92FF92D4
:100BE0000F931F93CF93DF93182FEB011092BC004C
:100BF00084EA8093BC000E943F1E7C019091BC005F
:100C000097FD0EC0CF3F8FEFD807C1F30E943F1E64
:100C10008E199F098C179D0788F38EEF9FEF2EC0CA
:100C20009091B900987F983041F09091B900987FE9
:100C3000903119F08FEF9FEF21C01093BB0084E833
:100C40008093BC000E943F1E8C019091BC0097FDD8
:100C50000CC0CF3F8FEFD807C1F30E943F1E801B0F
:100C6000910B8C179D0788F3D8CF8091B900887FAE
:100C7000883111F08034F1F680E090E0DF91CF917F
:100C80001F910F91FF90EF9008950F931F93CF93B3
:100C9000DF93EB018093BB0084E88093BC000E944B
:100CA0003F1E8C019091BC0097FD0EC0CF3F8FEF8F
:100CB000D807C1F30E943F1E801B910B8C179D0724
:100CC00088F38EEF9FEF0CC02091B900287F81E060
:100CD00090E0283211F480E090E09195819591099F
:100CE000DF91CF911F910F9108950F931F93CF9391
:100CF000DF93EC0184E88093BC000E943F1E8C01CE
:100D00009091BC0097FD0EC0CF3F8FEFD807C1F385
:100D10000E943F1E801B910B8C179D0788F38EEF5E
:100D20009FEF03C08091BB0090E0DF91CF911F91B6
:100D30000F91089584E98093BC0008951092E60114
:100D40000E94E8052FEF83ED90E321508040904012
:100D5000E1F700C0000080E008950F931F93CF9348
:100D6000DF931F92CDB7DEB79091E6019923D1F0C2
:100D7000062F182F64E670E080E40E94EE058111D2
:100D80000CC064E670E0812F0E944506811105C009
:100D900064E670E0802F0E94450689830E949A06CF
:100DA000898101C080E00F90DF91CF911F910F9159
:100DB00008956FE381E00C94AD0661E070E001C03E
:100DC000660F8A95EAF7609581E00C94AD066FE7AF
:100DD00080E00E94AD066FE782E00E94AD066FE7FB
:100DE0008CE00E94AD066FEF81E00E94AD0660ECE2
:100DF00083E10C94AD0664E670E080E40E94EE05A9
:100E0000811110C00E949A068091E601811116C0DE
:100E100081E08093E6010E94E7060E94AE158BE315
:100E200091E00AC08091E601882341F01092E6012A
:100E30000E94AE1583E291E00C94C80308950E94CD
:100E40009E060C94FB060F931F93CF93DF93909114
:100E5000E601992321F18B01D82F64E670E080E44C
:100E60000E94EE05C82F811116C064E670E08D2F38
:100E70000E944506C82F81110EC064E670E081E42F
:100E80000E94EE05C82F811106C084E690E00E9402
:100E90007506F80180830E949A068C2F01C080E0BD
:100EA000DF91CF911F910F910895CF93DF931F9200
:100EB000CDB7DEB71982BE016F5F7F4F82E10E941E
:100EC000230789810F90DF91CF910895279A2F985A
:100ED000259A2D9A269A2E9A249A2C9A259A2D98FC
:100EE0002FEF80E792E0215080409040E1F700C072
:100EF0000000269A2E982FEF80E792E02150804044
:100F00009040E1F700C00000249A2C982FEF80E772
:100F100092E0215080409040E1F700C00000259A07
:100F20002D9A2FEF80E792E0215080409040E1F72A
:100F300000C00000269A2E9A2FEF80E792E0215001
:100F400080409040E1F700C00000249A2C9A279A34
:100F50002F9A259A2D98269A2E98249A2C982FE726
:100F600082E490E1215080409040E1F700C0000011
:100F7000279A2F98259A2D9A269A2E9A249A2C9A57
:100F800008950E9466070C9482049C013A952115ED
:100F90003F4138F5DC01AA27B270AC0144275470F8
:100FA0009C012227387094FF0FC090FF02C080E19F
:100FB00001C080E0AB2B09F08062452B09F0806412
:100FC000232B69F080680BC0892F8170AB2B09F04F
:100FD0008260452B09F08460232B09F08860FB01B7
:100FE00009940895CF93DF93EC01805E91090897EF
:100FF00010F0209719F462ED72E102C066E875E125
:10100000CE010E94C5078C2FDF91CF910C94C611A1
:10101000CF93DF93EC010E945712CE01805E9109BD
:10102000089710F0209719F469ED72E102C06DE89D
:1010300075E1CE01DF91CF910C94C507CF93DF937B
:10104000EC010E94F207CE01DF91CF910C940808C9
:1010500081E0089581E008950C942A081F93CF93AE
:10106000DF9300D000D01F92CDB7DEB749835A83FB
:101070002091FE0189819A81211112C0662349F0D5
:101080000E94E31A182F682F89819A810E94881A7A
:1010900003C00E94B71A182F69817A81812F04C07A
:1010A0000E94E31A69817A810F900F900F900F9040
:1010B0000F90DF91CF911F910C940409FC014081A6
:1010C00051816281738184810C942E080E944B1C93
:1010D000811102C00E94FE1C0E94DC0D0E94590B6F
:1010E0000C94C1070C948404282F2F7041F0822F98
:1010F00090E02A3010F44D9608950697089587E2FF
:1011000090E0089508950C94820881E008950C946D
:101110008508CF93C82F0E9483088C2F0E948708D0
:10112000CF91089508950E94AE150E9492082FEF66
:1011300084E39CE0215080409040E1F700C0000033
:101140000C949B1E0F931F93CF93DF93EC010E948F
:101150005E088C01BE010E942C08882309F449C056
:10116000BE01C8010E94F60B882309F442C0BE01EB
:10117000C8010E945B0E8823E1F1BE01C8010E94F4
:101180009C0E8823B1F1BE01C8010E94C70F8823BD
:1011900081F18A81882331F101308CE5180751F003
:1011A0000E3D8CE51807D9F001151C45D9F40E94B5
:1011B00093081FC080919B02C82FC095C170C0FBCF
:1011C00080F980939B02CC2329F08BE593E00E9469
:1011D000C8030FC089E493E00E94C8030BC00E94BB
:1011E000FE1C07C0CE01DF91CF911F910F910C948F
:1011F0002808C0E08C2FDF91CF911F910F910895A7
:1012000080E090E0089508959EE0799FF001112418
:1012100094E5899FE00DF11D1124E60FF11DEE0FFD
:10122000FF1FEF5AFE4F859194910895880F991FE3
:10123000FC01E459FC4F859194910895CF93DF937D
:101240000E9404090E946D0AEC01811521E59207B4
:1012500008F042C0811560E5960708F0D8C0883EC6
:10126000910500F5803E910508F033C1883A91055B
:1012700070F4853A910508F0A4C08130910509F415
:1012800028C108F424C1049708F023C120C18F3B72
:10129000910508F49EC0803C910508F418C1805C5B
:1012A0009109A4C0C11580E3D80780F4C11590E26C
:1012B000D90708F099C0C03FD10508F408C1CF3F55
:1012C000D10511F008F005C1D06503C1C11520E4B6
:1012D000D20708F099C08EC0811569E5960760F5C0
:1012E000C11588E5D80708F0DEC0C11594E5D90717
:1012F00078F4C11523E5D20708F0BAC0C11562E53C
:10130000D60708F09FC0DC2FCC27C16FD06AE1C0A0
:10131000C11585E5D80708F4C1C0C11596E5D90700
:1013200008F0D5C08C2F0E94010B8F71C82FD0E020
:10133000DC2FCC27D062CDC08D3B2CE5920709F481
:10134000BDC0E0F4CB3B8CE5D80709F4B1C008F090
:10135000B2C0C1152AE5D20708F0B9C08C2F8F7032
:101360000E94010B94E0D695C7959A95E1F7CF704E
:10137000D0E0DC2FCC27D069C82BABC0803C9C458B
:1013800009F4A2C0C13C8CE5D80760F4CE3B9CE5D3
:10139000D90709F496C0CF3BDC4509F098C0C0E0FE
:1013A000D2ED97C0CE0190568115904208F08FC0C3
:1013B0008D2F8F710E94010BDD27D0628F71D82B8A
:1013C00088C0C55AD0E0C05CDE4FC881D0E0D06490
:1013D00080C0C85AD0E0CC0FDD1FCE5EDE4F099032
:1013E000D881C02DD46475C0CE019F700E941609AB
:1013F000EC016FC0CE019927D3FF03C0EC01D86C7C
:1014000068C0EC01D06C65C0DF70D06A62C08370C8
:1014100021E030E002C0220F331F8A95E2F73C68DA
:10142000CE0174E0969587957A95E1F78370382B15
:10143000CF70C695C69580E2C89FE0011124C22BEB
:10144000D32B47C04C2F4695469590E2499FA0016B
:101450001124C370DD2721E030E0C90102C0880FEC
:10146000991FCA95E2F7EC01C42BD52BDC6831C07B
:101470004C2F4695469580E2489FA0011124C370E9
:10148000DD2721E030E0C90102C0880F991FCA950D
:10149000E2F7EC01C42BD52BDA681BC0DC2FCC277C
:1014A000C46FD06A16C0DC2FCC27C06FD06A11C0C1
:1014B000C0E0D4ED0EC0C0E0D5ED0BC0C0E0D1ED72
:1014C00008C0C0E0D0ED05C0C0E0D3ED02C0C0E070
:1014D000D0E0CE01DF91CF9108958238910569F176
:1014E000B0F48133910509F46DC048F48932910557
:1014F00009F463C08A32910509F469C008958533FF
:10150000910509F455C089339105B9F00895833EDA
:10151000910569F138F4803E9105B1F0823E910564
:1015200009F10895863E9105A9F1873E9105B9F12B
:10153000843E910509F064C023C02091DA0220FDA9
:101540004FC021FD4DC008958091DA0280FD44C056
:101550008091DB0280FF44C08091DA0284FD42C0AA
:1015600083EE4DC08091DA0282FF38C0F5CF8091C2
:10157000DA0282FD33C08091DB0280FD31C0ECCF06
:101580008091DB0281FF32C08091DA0284FD2AC0A3
:1015900087EE35C08091DA0283FF26C0F5CF8091B7
:1015A000DA0283FD21C08091DB0281FD1FC0ECCFF8
:1015B0008091DA0285FD1CC01DC08091DA0285FD94
:1015C00019C016C08091DA0286FD16C017C080913E
:1015D000DA0286FD13C010C089E311C082EE0FC08D
:1015E00080EE0DC080E00BC086EE09C084EE07C01F
:1015F00089E205C085E303C08AE201C081E390E08F
:1016000008959091DA0292FF0DC0282F287128309A
:1016100019F4877F846006C0282F2471243011F4C8
:101620008B7F886093FF0DC0282F2871283119F413
:10163000877E846106C0282F2471243111F48B7EAB
:1016400088612091DB0220FF0DC0382F38713830BF
:1016500019F4877F816006C0382F3171313011F461
:101660008E7F886021FF0DC0282F2871283119F442
:10167000877E816106C0282F2171213111F48E7E71
:10168000886194FD877E0895CF93DF9397FF0DC007
:10169000FB012281222349F0EC010E94980BCE012C
:1016A0009F770E94D90B0E94C20B81E0DF91CF91FE
:1016B00008958CE090E00E94382B90E0A0E0B0E02C
:1016C0008093CE029093CF02A093D002B093D10228
:1016D00080919B0280FF0EC08091CE021F928F935B
:1016E0008BE893E09F938F930E9461040F900F907B
:1016F0000F900F9008956091CE028CE090E00C94D2
:10170000462B8093CE020E947B0B80919B0280FF30
:101710000EC08091CE021F928F938CE693E09F9330
:101720008F930E9461040F900F900F900F90089577
:101730000E94631B8093D2020E94761B8091CE028E
:10174000813071F048F0823081F08430A1F486EE6F
:101750000E94BF1288E10DC082EE0E94C6110BC02C
:1017600088E193E00E941E0806C082EE0E94C61126
:1017700087E50E94BF128FE39CE90197F1F700C053
:10178000000008958091CE02813039F040F082301F
:1017900031F0843051F488E206C08CE204C082EE5D
:1017A0000E94571202C00E94BF128091D2020C9474
:1017B000731B0F931F93CF93DF938C01CCE0D0E08A
:1017C000C8010C2E02C0969587950A94E2F78F7097
:1017D0000E9474080E94BF122497CC3F8FEFD80755
:1017E00079F7DF91CF911F910F9108950F931F9378
:1017F000CF93DF93EC018B01FB018281882301F100
:10180000C33EFCE5DF07B9F050F4C13EECE5DE076E
:1018100081F0C23EFCE5DF0799F481E00FC0C43ED1
:101820008CE5D80751F0C53EECE5DE0749F484E0CD
:1018300005C080E003C082E001C083E00E94810B0C
:10184000B801CE01DF91CF911F910F910C94440B01
:101850000E944B1C811102C00E94FE1C0E94861C2B
:101860008093D302282F26952695269530E02430A4
:10187000310524F0877088618093D3028091D30270
:1018800080FF04C086958695869501C080E00C9403
:101890007F0D2091D302822F869586958695482FBD
:1018A00050E04330510554F48F5F982F990F990FF2
:1018B000990F822F8770892B8093D3028091D30256
:1018C00081608093D3020E948A1C80919B0280FFDA
:1018D00011C08091D3028695869586951F928F932D
:1018E00082E194E09F938F930E9461040F900F9088
:1018F0000F900F908091D3028695869586950C94D3
:101900007F0D8091D302982F969596959695A1F08C
:10191000915E990F990F990F8770892B8093D3024D
:10192000887F91E009F490E08091D30290FB80F9E8
:101930008093D3020E948A1C80919B0280FF11C079
:101940008091D3028695869586951F928F938AEF14
:1019500093E09F938F930E9461040F900F900F90DC
:101960000F908091D3028695869586950C947F0D75
:101970008091D30280FD1FC081608093D3028130AB
:1019800019F489E08093D3028091D3020E948A1CCB
:1019900080919B0280FF08C082ED93E09F938F931C
:1019A0000E9461040F900F908091D30286958695D6
:1019B00086950C947F0D08958091D30280FF14C00A
:1019C0008E7F8093D3020E948A1C80919B0280FFAD
:1019D00008C08FEB93E09F938F930E9461040F9058
:1019E0000F9080E00C947F0D0895CF93C091D302A7
:1019F000C17080919B0280FF0CC01F92CF9384EE38
:101A000093E09F938F930E9461040F900F900F902B
:101A10000F90CC2319F0CF910C94DC0CCF910C9447
:101A2000B80C9091D302892F8695869586958F5F05
:101A30008F719770843038F4880F880F880F892B46
:101A40008093D30202C09093D3028091D302887F07
:101A500091E009F490E08091D30290FB80F98093AB
:101A6000D3020E948A1C80919B0280FF11C080914A
:101A7000D3028695869586951F928F938BEA93E085
:101A80009F938F930E9461040F900F900F900F907F
:101A90008091D3028695869586950C947F0D84302F
:101AA00008F083E09091D3029770282F220F220F25
:101AB000220F922B9093D302987F21E009F420E02B
:101AC0009091D30220FB90F99093D3020C947F0D58
:101AD0000E944F0D8091D3020C948A1CE82FE2954E
:101AE000EF70F0E032A1282F2F7081E090E001C06C
:101AF000880F2A95EAF78095832382A30895CF92D1
:101B0000DF92EF92FF92843030F4811105C0909102
:101B10008000977F04C083E090918000986090934C
:101B20008000282F30E0AFEFBFEF0E941E2B23E094
:101B300030E040E050E00E94F62A2C3784E138077C
:101B40004105510530F4C90169E070E00E94CE2AD8
:101B500029C0DA01C9018A50974DAF4FBF4F6627A0
:101B6000782F892F9A2F25EF38E241E050E00E942C
:101B7000F62A69017A01CA01B9010E94B22A9B01C1
:101B8000AC01C701B6010E94B22ABB27A92F982F2A
:101B9000872F009721E0A207B10511F0BC0102C018
:101BA0006FEF7FEF70938D0060938C00FF90EF904C
:101BB000DF90CF9008950895279A87E30E946E0DD5
:101BC0008AE08093800089E1809381008FEF9FEF0E
:101BD00090938700809386000C94280C0F931F939A
:101BE000CF93DF93C62FD42F022FFC01828188234D
:101BF000C9F06093E9010E943F1E9093E801809331
:101C0000E70180E28C0F883008F050C0C77081E097
:101C100001C0880FCA95EAF7DF91CF911F910F910C
:101C20000C94D2121091E901161330C08091E70193
:101C30009091E8010E944B1E883C910538F5C0E266
:101C4000CD0F1D17B9F080E2810F883040F4177076
:101C500081E001C0880F1A95EAF70E94D912C830B6
:101C600048F481E09D2F977001C0880F9A95EAF79C
:101C70000E94D212802F0E94BF12C830B8F4D770D1
:101C800081E001C0880FDA95EAF70AC080E28C0F84
:101C9000883060F4C77081E001C0880FCA95EAF708
:101CA000DF91CF911F910F910C94D912DF91CF91B9
:101CB0001F910F9108959C01CB01233F4CE5340700
:101CC000F9F078F4283DFCE53F07B9F0293D4CE5F3
:101CD000340711F1273D3C4531F526E241EE61EE36
:101CE0001EC0253FFCE53F0799F070F0263F3C45BC
:101CF000D1F427E245EE66EE12C027E245EE0EC0B3
:101D000026E241EE60EE0BC027E245EE64EE07C02E
:101D100026E241EE62EE03C028E241E065EE0E9459
:101D2000EE0D80E00895FC018281882319F0109265
:101D3000E901089581E00895CF93DF93EC01FB0161
:101D40008281882309F41FC1C230FCE5DF0708F453
:101D50001BC1C6319CE5D90738F09E012A5F3C457E
:101D60002930310508F010C10E94681C9093DB02F5
:101D70008093DA02C031ECE5DE0709F4C3C008F055
:101D800041C0C8308CE5D80709F49AC0F0F4C430DB
:101D9000ECE5DE0709F487C068F4C2308CE5D807AB
:101DA00009F477C0C330DC4509F0E3C08091DA0262
:101DB000826076C0C630ECE5DE0709F46EC008F03C
:101DC0007BC08091DA0288606BC0CC308CE5D8078C
:101DD00009F485C068F4CA30ECE5DE0709F474C084
:101DE00008F079C00E94AE158091DA02806858C070
:101DF000CE308CE5D80709F476C008F07FC080911A
:101E0000DA028BC0CB3FECE5DE0709F44FC018F5D2
:101E1000C3318CE5D80709F47DC078F4C131ECE515
:101E2000DE0709F473C0C231DC4509F0A2C00E948C
:101E3000AE158091DA028F7733C0C5318CE5D807B3
:101E400009F472C008F486C0CA3FDC4509F091C0AD
:101E50008091DB023EC0CF3FFCE5DF0709F45FC0A5
:101E600058F4CD3F9CE5D90709F444C008F43FC0BD
:101E70008091DB0282602DC0C130FDE5DF0709F4EF
:101E800075C008F45DC0C230DD4509F072C080E065
:101E90006EC08091DA02816003C08091DA028061B5
:101EA0008093DA0266C08091DA0211C08091DB0271
:101EB00082608093DB025DC08091DA028062F0CFA5
:101EC0008091DA028064ECCF8091DA0288608460CD
:101ED000E7CF8160EECF8091DA028E7FE1CF8091F3
:101EE000DA028D7FDDCF8091DA02877FD9CF8091B2
:101EF000DB0218C08091DB028D7FDBCF8091DA029C
:101F00008F7ECECF8091DA028F7DCACF8091DA02A8
:101F10008F7BC6CF8091DA02877F8B7FC1CF809184
:101F2000DB028D7F8E7FC5CF8091DA0282FB222774
:101F300020F991E0922790FB82F990FB83F9B0CFD2
:101F40008091DB02982F909591708E7F892B90FB6A
:101F500081F9AFCF0E94AE158091DA0287FB22276C
:101F600020F991E0922790FB87F99ACF81E00E94B7
:101F7000001D8091DA029091DB020E94791C0E9480
:101F8000AE1580E001C081E0DF91CF910895CF933D
:101F9000DF9386319C4541F5EB010E94631B282F9E
:101FA0008A814091000150910101882379F02A7AB9
:101FB00091E009F490E09093EA01911102C069E286
:101FC00001C065E3CA010E948C1D0AC08091EA012C
:101FD000811102C069E201C065E3CA010E94971D38
:101FE0000E94B21B80E001C081E0DF91CF91089593
:101FF0009093F0018093EF010895E091EF01F0914B
:10200000F001309721F00190F081E02D099480E0FB
:102010000895EF92FF921F93CF93DF93FC01A0915D
:10202000EF01B091F001109709F442C080911101C5
:10203000882341F08091DA0287FF04C08081818388
:1020400085E08083EF011296ED91FC911397CE010C
:10205000099580919B0282FF2BC080FF04C082E320
:1020600094E00E94C80318E08CE2E82E84E0F82E89
:1020700080919B0280FF0BC088811F928F93FF92FB
:10208000EF920E9461040F900F900F900F901150EB
:1020900021961111EDCF80919B0280FF09C08AE249
:1020A00094E0DF91CF911F91FF90EF900C94C803C3
:1020B000DF91CF911F91FF90EF900895E091EF0194
:1020C000F091F001309739F022E0DC012C9304808C
:1020D000F581E02D099408952091ED013091EE01F4
:1020E0008217930771F09093EE018093ED01E091D8
:1020F000EF01F091F001309721F00680F781E02D9B
:10210000099408952091EB013091EC018217930717
:1021100071F09093EC018093EB01E091EF01F0916D
:10212000F001309721F00084F185E02D09940895A5
:1021300085B7806885BF85B7806885BF0895089595
:1021400008950C94A01008950C94A3100E94981068
:102150000E949F100C94A11081E008950E94361EE9
:102160000E9486040E940B1F0E94280C0C94A4104D
:10217000CF93C82F80919B0282FF1EC080FF04C0B6
:102180008BE494E00E94C80380919B0280FF0CC006
:102190001F92CF9386E494E09F938F930E946104F3
:1021A0000F900F900F900F9080919B0280FF04C0C2
:1021B00084E494E00E94C8038C2FCF910C9489088A
:1021C0007F928F929F92AF92BF92CF92DF92EF92C7
:1021D000FF920F931F93CF93DF93CDB7DEB72A976C
:1021E0000FB6F894DEBF0FBECDBF0E94FC040E9464
:1021F000AC10811111C08FEF89838A831B820E94EA
:102200003F1E8160782F9D838C8349815A816B8129
:102210008D810E9492114FC032EF832E31E0932EB8
:1022200000E010E0702E802F0E9498056C01F401F0
:10223000A190B1904F01A826B926A114B10431F4A0
:102240000F5F1F4F0630110569F7D5CF80919B02B4
:1022500081FD0E94A10590E0EE24E394F12C97010A
:102260002A213B21232B09F19E837F82CE20DF2070
:1022700091E0CD2809F490E098870E943F1E81608C
:10228000782F9A8789874E815F8168858A850E9429
:102290009211000F111FF801EE50FE4F80819181C5
:1022A000E826F926F182E08206C09F5FEE0CFF1C53
:1022B0009E30A9F6C5CF0E94DB0D0E9449221091E5
:1022C000F1010E94FD0F1817C9F00E94FD0F8093C5
:1022D000F1012A960FB6F894DEBF0FBECDBFDF9195
:1022E000CF911F910F91FF90EF90DF90CF90BF9013
:1022F000AF909F908F907F900C94B8102A960FB655
:10230000F894DEBF0FBECDBFDF91CF911F910F912B
:10231000FF90EF90DF90CF90BF90AF909F908F9005
:102320007F900895CF93DF93CDB7DEB72B970FB68D
:10233000F894DEBF0FBECDBF4F83588769877A8779
:102340008B87DE01119686E0FD0111928A95E9F7EF
:1023500085E0FE01379601900D928A95E1F749815B
:102360005A816B817C818D819E810E9458182B96A9
:102370000FB6F894DEBF0FBECDBFDF91CF910895A9
:10238000FC01808191810E94241B0895882309F417
:102390008DC08238C1F40E94FD0F81FD87C069E3C2
:1023A00080910001909101010E948C1D0E94B21B3E
:1023B0002FEF81EE94E0215080409040E1F700C083
:1023C000000069E319C08338F9F40E94FD0F80FD15
:1023D0006DC063E580910001909101010E948C1D08
:1023E0000E94B21B2FEF81EE94E02150804090407C
:1023F000E1F700C0000063E58091000190910101C8
:102400000E94971D0C94B21B8438C1F40E94FD0FEA
:1024100082FD4CC067E480910001909101010E940F
:102420008C1D0E94B21B2FEF81EE94E02150804062
:102430009040E1F700C0000067E4DECF9CEF980F0A
:10244000913A40F4682F80910001909101010E941F
:102450008C1DD8CF90E2980F983050F4877091E09F
:1024600001C0990F8A95EAF7892F0E94661BCACF8F
:10247000EBE5E80FE33038F4F0E0EF58FE4F8081F1
:1024800090E00C946C10E8E5E80FE73148F4F0E0D8
:10249000EE0FFF1FED5BFE4F808191810C94821047
:1024A000803F20F00E94CF200C94BC210895882307
:1024B00009F464C0823879F40E94FD0F81FF5EC088
:1024C00069E380910001909101010E948C1D0E949E
:1024D000B21B69E310C08338B1F40E94FD0F80FF86
:1024E0004DC063E580910001909101010E948C1D17
:1024F0000E94B21B63E580910001909101010E944E
:10250000971D0C94B21B843879F40E94FD0F82FF52
:1025100035C067E480910001909101010E948C1DFB
:102520000E94B21B67E4E7CF9CEF980F913A10F43A
:10253000682FE1CF90E2980F983050F4877091E0C7
:1025400001C0990F8A95EAF7892F0E946C1BD9CF99
:102550009BE5980F933020F480E090E00C946C1091
:1025600098E5980F973120F480E090E00C94821069
:10257000803F20F00E9437210C94BC210895CF9316
:10258000C82F0E94C611C93349F42FEF87EE93E09C
:10259000215080409040E1F700C000008C2FCF9187
:1025A0000C945712882321F00E94661B0C94B21BD6
:1025B0000895882321F00E946C1B0C94B21B08958F
:1025C000BF92CF92DF92EF92FF920F931F93CF9320
:1025D000DF937C01062FC72FFC01158112951F7018
:1025E000D281D1110E94861B0E945C1B882379F046
:1025F000DD2369F080E2800F883048F082E00E949D
:10260000FD1B0E945C1B91E0B82EB92601C0B12CC5
:10261000CC2EC2948FE0C822D12CF601EA5AFF4F8B
:102620000C94182B8C2F807FCF70882311F0C295CB
:10263000C07FDD2399F0CC2309F4C7C180E2800F6D
:10264000883010F0011104C08C2F0E94661B03C05B
:102650008C2F0E94791B0E94B21BB7C1802F0E9451
:102660005712CC2309F4FAC180E2800F883010F0B1
:10267000011104C08C2F0E946C1B03C08C2F0E9480
:102680007F1B0E94B21BEAC18C2F807FCF708032EB
:1026900011F0C295C07F002319F00130C9F021C0AC
:1026A000DD2371F0112341F0113031F40E94991BA8
:1026B0008C2B0E949F1BD2C10E94991B8C2B16C091
:1026C000112319F0113009F4C9C10E94A81B1EC0C2
:1026D000DD2321F0123008F0C1C107C01111BEC1C5
:1026E00015C0DD2331F0111170C18C2F0E94D21260
:1026F000B5C1112359F0093309F078C1FFEF27EE76
:1027000083E0F15020408040E1F76EC18C2F0E94A1
:10271000D912A4C18C2F86958695837090E000977E
:1027200019F0019761F09AC1DD2321F0802F9C2FD1
:10273000937002C080E090E00E946C109AC1DD238B
:1027400021F0802F9C2F937002C080E090E00E94C7
:1027500082108FC1DD23F9F0053F51F0063F71F083
:10276000043FA9F48091D4029091D50281600BC0FE
:102770008091D4029091D502826005C08091D402EC
:102780009091D50284609093D5028093D402802FDB
:102790000E94CF201EC0053F51F0063F71F0043F5C
:1027A000A9F48091D4029091D5028E7F0BC08091C4
:1027B000D4029091D5028D7F05C08091D402909172
:1027C000D5028B7F9093D5028093D402802F0E94F4
:1027D00037210E94BC214DC18C2F837009F049C064
:1027E000D11143C1402F429546954770440F440F85
:1027F000602F6F70862F90E0A0E0B0E0042E04C040
:10280000880F991FAA1FBB1F0A94D2F704FF10C09C
:102810000FE010E020E030E004C0000F111F221F85
:10282000331F4A95D2F7009510952095309503C037
:1028300000E010E09801C695C695C370D0E0BC01D9
:10284000CD01602B712B822B932BC230D10559F017
:10285000C330D10559F0219719F00E949D1905C187
:102860000E948B1902C10E94AF19FFC00E948919F2
:10287000FCC0DD2319F08C2F817001C08695882360
:1028800009F4F3C0402F429546954770440F440F1A
:10289000602F6F70862F90E0A0E0B0E0042E04C09F
:1028A000880F991FAA1FBB1F0A94D2F704FF10C0FC
:1028B0000FE010E020E030E004C0000F111F221FE5
:1028C000331F4A95D2F7009510952095309503C097
:1028D00000E010E09801C695C695C370D0E0BC0139
:1028E000CD01602B712B822B932BC230D10559F077
:1028F000C330D10559F0219719F00E94631AB5C071
:102900000E94511AB2C00E94751AAFC00E94C41929
:10291000ACC0CF70DD2339F08C2F0E94EA19802FD4
:102920000E94D212A2C0802F0E94D9128C2F0E9426
:102930000B1A9BC0023FF9F028F4003F41F0013F21
:1029400099F03FC0033FF1F0043F31F13AC0DD237D
:1029500039F0111183C08C2F8F710E94301A7EC004
:10296000123008F07BC0F7CFDD2339F08C2F8F7148
:102970000E94EA1973C0DD23C9F38C2F8F710E9466
:102980000B1A6CC0DD2329F08C2F8F710E94D51992
:1029900065C00E94D01962C0DD2349F0CF718C2F31
:1029A0000E94EA1963E08C2F0E94E81B57C081E067
:1029B0000E94FD1B123008F451C082E00E94FD1BF2
:1029C0004DC0DD2331F0112389F2802F0E94C61102
:1029D00045C0112391F2093349F49FEFE7EEF3E08C
:1029E0009150E040F040E1F700C00000802F0E94CD
:1029F000571234C04C2F4F70602FC7010E9400093E
:102A00000E94FC1836C0D11134C0CF70D0E0C23063
:102A1000D10599F03CF4209769F02197F9F40E94D0
:102A2000810C27C0C430D10571F054F02597B1F462
:102A300080E00AC00E94490C1CC00E94F50C19C01D
:102A40000E94110D16C083E00E94680D12C04C2F29
:102A50004F70602FC7010E9403090BC028E0C21A03
:102A6000D10884E0C816D10420F40E94FD0F0E9412
:102A70008908BB20D1F00E94581B80FD16C0F701C9
:102A800012820E94521B0E94EA19C7010E945F1520
:102A90000E94521BDF91CF911F910F91FF90EF90F9
:102AA000DF90CF90BF900C940B1ADF91CF911F91C4
:102AB0000F91FF90EF90DF90CF90BF9008950F930C
:102AC0001F93CF93DF93EC01888199812B813C8107
:102AD000232BB9F09F3F11F48F3F99F0CE010E9454
:102AE000A208882371F0688179818A810E942F1B56
:102AF0008C010E94871A0E948819B801CE010E9499
:102B0000E012DF91CF911F910F910895882321F05A
:102B10000E94791B0C94B21B0895882321F00E9417
:102B20007F1B0C94B21B08950E94861B0E94961B6B
:102B30000E94B21B0E94E4220E94BC2180E090E02F
:102B40000E946C1080E090E00C9482108091000153
:102B5000909101010E94A21D0C9494150E94761B75
:102B60000C94A615E92FE295EF70F0E03297EE3065
:102B7000F105B0F4EA59FF4F0C94182B803F91F007
:102B800018F4883E68F40EC0843F51F40BC0883EB0
:102B900048F0813F29F406C093FB882780F9089507
:102BA00080E0089581E008950E94241B0E94B215E0
:102BB0000895CF93DF9300D000D01F92CDB7DEB73A
:102BC0000F900F900F900F900F90DF91CF9108957D
:102BD000CF93DF9300D000D000D0CDB7DEB72696DC
:102BE0000FB6F894DEBF0FBECDBFDF91CF91089531
:102BF0001F93CF93DF93C091FF0116E080910002F5
:102C0000C81799F0D0E01C9FF0011D9FF00D112412
:102C1000EF5FFD4F40815181628173818481958195
:102C20000E94E8152196C770E9CFDF91CF911F91DF
:102C300008954091310250913202609133027091B7
:102C4000340280913502909136020C94E8158091FF
:102C5000360282958F7009F054C080913302882328
:102C600009F44FC08091FF01A091000260913102F0
:102C7000709132024091340250913502B6E08A17C9
:102C800009F43FC090E041155105C1F17F3F11F4B7
:102C90006F3FA1F1B89FF001B99FF00D1124EF5FD4
:102CA000FD4F218172132AC02081621327C0228127
:102CB000211124C0238134812417350710F42150B9
:102CC0003109241B350B283C3105C0F42091360214
:102CD0002F7020612093360226E0289FF001299F63
:102CE000F00D1124EA5FFD4F80818F708061808339
:102CF00081E392E00E945F150C94F81501968770AD
:102D0000BECF0895CF92DF92EF92FF920F931F9361
:102D1000CF93DF93CDB7DEB762970FB6F894DEBFDF
:102D20000FBECDBF8C0185E0F801DE011D9601903C
:102D30000D928A95E1F7D8014C9111965C9111970B
:102D400012966C9112971396CD90DC901497309157
:102D500031027091320280913402909135020097D5
:102D600009F46BC17F3F19F43F3F09F466C1E0905D
:102D70003302EE2009F4C0C020913602C816D906ED
:102D800028F0F601E81BF90BCF0104C0809590955F
:102D90008C0D9D1DFF24F394883C910578F0F12C57
:102DA000207F09F0C6C07C2DD98AC88A89890E94F3
:102DB000D91581E392E00E945F15B1C0822F807F18
:102DC00009F046C0751314C0341312C0611110C04D
:102DD0002F702061209336020E94191681E392E041
:102DE0000E945F1580913602D80115968C932EC0F3
:102DF000CD2819F15F3F11F44F3FF9F0F62E611124
:102E00001CC08091FF012091000236E0821709F476
:102E10005AC090E0389FF001399FF00D1124EF5F08
:102E2000FD4F7181571306C07081471303C0728133
:102E3000711103C001968770E9CFF62E662309F45D
:102E400027C180913602816080933602F12C20C127
:102E5000751308C0341306C0611104C08091360296
:102E6000D801C3C04D875E878D859E856A8B0E9481
:102E7000D4156A898823E1F16623D1F120913602C5
:102E8000822F82958F7090E0029774F080913102CA
:102E90009091320298878F831986DB86CA862C87A9
:102EA000CE0107960E945F1586E0F801A1E3B2E02B
:102EB00001900D928A95E1F70E9427160E9419163B
:102EC000FF24F394E5C04D875E878D859E850E9423
:102ED000241B292F22952F7030E0223031050CF071
:102EE000CBC09F7009F0C5C0805E883008F4D0C0A8
:102EF000C8010E945F15E4CFC816D90608F453C074
:102F0000F601E81BF90BCF01883C910508F450C08D
:102F1000F12C7C2DD98AC88A89890E94D915E1E3D0
:102F2000F2E086E0DF011D928A95E9F70E9419160A
:102F3000AFC0751314C0341312C0611110C080915A
:102F40003602F8018583C8010E945F1586E0E1E33F
:102F5000F2E0DF011D928A95E9F7FE2C99C04D87BA
:102F60005E878D859E856A8B0E94D4156A89882329
:102F700009F4BECF662309F4BBCF20913602822F1D
:102F800082958F7090E002970CF48ECF8091310281
:102F9000909132029A8389831B82DD82CC822E83B8
:102FA000CE0101967FCF809590958C0D9D1DACCF65
:102FB000F62E662309F49CCF75132EC034132CC053
:102FC0002091360220FD1FC0822F82958F70D9F08C
:102FD000D80115962C9315978F3049F08F5F982F55
:102FE0009295907F822F8F70892B15968C93C801B4
:102FF0000E945F1586E0F801A1E3B2E001900D9216
:103000008A95E1F793CF86E0F801A1E3B2E0019061
:103010000D928A95E1F73CC04D875E878D859E8530
:103020000E94D415811140CF809136028160809337
:103030003602C8010E945F152BC0662309F458CFE1
:103040004D875E878D859E850E94D415F82E882336
:1030500009F44ECF86E0F801A1E3B2E001900D92B1
:103060008A95E1F781E392E00E94C0110E94271641
:103070005DCF811139CF0CC0243031050CF038CF31
:103080009F7009F431CFF8019581907F09F02CCF22
:103090008F2D62960FB6F894DEBF0FBECDBFDF91C5
:1030A000CF911F910F91FF90EF90DF90CF900895F7
:1030B0001F93CF93DF93CDB7DEB72C970FB6F8945D
:1030C000DEBF0FBECDBF4F83588769877A878B8756
:1030D0009C87CE0107960E948216882369F08F8113
:1030E00098852A853B85232BF1F19F3F09F063C02A
:1030F0008F3F09F060C037C086E0FE013796DE01E1
:10310000119601900D928A95E1F76F817885EA8595
:10311000FB85309741F17F3F11F46F3F21F1209102
:10312000000230E0C9010196877099274091FF01A4
:1031300050E08417950709F447C069837A83FD83BB
:10314000EC8396E0929FD001939FB00D1124AF5F66
:10315000BD4FFE01319601900D929A95E1F7809353
:1031600000020E94F81516E08091FF019091000284
:103170008917C1F1189FC00111248F5F9D4F0E94D4
:103180008216882379F1E091FF011E9FF00111243E
:10319000EF5FFD4F40815181628173818481958110
:1031A0000E94E8158091FF0190E0019687709927B1
:1031B0008093FF01D9CF4F81588569857A858B85AA
:1031C0009C850E94E815CFCF0E94AE151092000298
:1031D0001092FF01E1E3F2E086E0DF011D928A95A3
:1031E000E9F7C1CF2C960FB6F894DEBF0FBECDBF66
:1031F000DF91CF911F910895EF92FF920F931F934C
:10320000CF93DF938C01892B09F46CC0F12CEE2451
:10321000E394E8012196F8018491843740F48430E6
:1032200008F051C0813081F0823019F15BC08537E0
:1032300009F444C0A8F19CE7980F903708F052C0F9
:103240008F770E94571241C00E5F1F4FFE01C4913D
:1032500080E28C0F883048F4C7708E2D01C0880F33
:10326000CA95EAF70E94891B14C08C2F0E94C611D0
:103270002DC00E5F1F4FFE01C49180E28C0F88307D
:1032800058F4C7708E2D01C0880FCA95EAF70E94C6
:103290008F1B0E94B21B1AC08C2F0E94571216C09F
:1032A0000E5F1F4FFE01C491CC2381F08FE99FE098
:1032B0000197F1F700C00000C150F6CF0E5F1F4F1D
:1032C000FE01F49003C00E94C6118E018F2D882349
:1032D00009F49FCFEFE9FFE03197F1F700C000005C
:1032E0008150F5CFDF91CF911F910F91FF90EF901B
:1032F000089508950C9479190E947A1960937202C6
:103300007093730280937402909375020C949415D9
:1033100008950C947C190F931F93009172021091E1
:1033200073022091740230917502602B712B822BF5
:10333000932B1F910F910C947C190F931F93009165
:103340007202109173022091740230917502602311
:103350007123822393231F910F910C947C190F9357
:103360001F930091720210917302209174023091A8
:10337000750260277127822793271F910F910C9464
:103380007C1908950C94C1190E94C21960936E02B1
:1033900070936F0280937002909371020C94941555
:1033A00060E070E0CB010C94C4190F931F9341E0CF
:1033B00050E060E070E08A019B0104C0000F111F23
:1033C000221F331F8A95D2F7C901B8011F910F91AF
:1033D0000C94C4190F931F9341E050E060E070E03B
:1033E00004C0440F551F661F771F8A95D2F780913E
:1033F0006E0290916F02A0917002B09171028A01E9
:103400009B01082B192B2A2B3B2BC901B8011F91BB
:103410000F910C94C4190F931F9341E050E060E0AA
:1034200070E004C0440F551F661F771F8A95D2F7BE
:10343000409550956095709580916E0290916F02C5
:10344000A0917002B09171028A019B010823192397
:103450002A233B23C901B8011F910F910C94C41971
:103460000F931F9341E050E060E070E004C0440F10
:10347000551F661F771F8A95D2F780916E02909133
:103480006F02A0917002B09171028A019B0108271E
:1034900019272A273B27C901B8011F910F910C94C6
:1034A000C4190F931F9300916E0210916F02209127
:1034B000700230917102602B712B822B932B1F9124
:1034C0000F910C94C4190F931F9300916E021091E9
:1034D0006F02209170023091710260237123822368
:1034E00093231F910F910C94C4190F931F93009174
:1034F0006E0210916F02209170023091710260276C
:103500007127822793271F910F910C94C419089556
:103510002EE0929F800D1124A82FA695A695A69522
:10352000877051E001C0550F8A95EAF785E0A89FA2
:10353000D001112420E030E070E0F901EA0FFB1F18
:10354000E95CFD4F4081CB01022E02C09695879524
:103550000A94E2F78170992781958427852384272F
:1035600080832F5F3F4F2530310539F708952EE0D6
:10357000929F800D1124682F669566956695982F09
:10358000977085E0689FB001112440E050E080E032
:10359000FA01E60FF71FE95CFD4F208130E0092EAC
:1035A00002C0369527950A94E2F721703327042E3E
:1035B00001C0220F0A94EAF7822B4F5F5F4F45301C
:1035C000510531F70895BF92CF92DF92EF92FF92AB
:1035D0000F931F93CF93DF938C01C0907202D09012
:1035E0007302E0907402F090750280916E029091E7
:1035F0006F02A0917002B0917102C82AD92AEA2AFA
:10360000FB2ACFE1D0E0D701C6010C2E04C0B6954D
:10361000A795979587950A94D2F780FF07C0BC2E8F
:10362000B8018C2F0E941E09019719F4219758F7B1
:10363000B12C8B2DDF91CF911F910F91FF90EF90C7
:10364000DF90CF90BF900895CF93DF93EC010E945D
:10365000E31ABE010E941E09DF91CF9108951F93C6
:10366000CF93DF93EB019091FE01992321F0CB01E1
:103670000E94241B13C0882349F0CB010E94E31A47
:10368000182F682FCE010E94881A04C0CB010E9417
:10369000B71A182FBE01812F0E941E09DF91CF910A
:1036A0001F91089580917602859585958595089559
:1036B000809176028770089590917602977081E0EC
:1036C00009F480E0089580919A02089590919A02F9
:1036D000892B80939A020895809590919A0289236C
:1036E00080939A02089580939A02089510929A0204
:1036F000089590919902892B80939902089580955D
:1037000090919902892380939902089510929902C9
:10371000089590919802892B80939802089580953E
:1037200090919802892380939802089510929802AC
:10373000089580917702089508950C949C1B9091B0
:103740007702981721F0809377020C949D1B0895BF
:1037500080917702882329F01092770280E00C9400
:103760009D1B0895E0910001F091010180919A0262
:103770008083E0910001F091010190818091990294
:10378000892B8083E0910001F0910101908180916B
:103790009802892B808380917702882381F0E091C1
:1037A0000001F09101019081892B808380910001BB
:1037B000909101010E94051D81110E94A81B80911A
:1037C0000001909101010C94091008950C94E51BDF
:1037D00098E0899F90011124262B209376020E9465
:1037E000EA19809176028595859585950C94E61B5E
:1037F0001092760280E00C94E61B20917602809570
:10380000822380937602982F977079F430E0482FC6
:10381000082E000C550B2417350739F08595859532
:1038200085950E940B1A0C94F81B089590938501BE
:103830008093840108958295982F9C7C392F36952A
:103840003695282F237344E0249FC0011124932F21
:10385000982B292F2A7A2695892F8575880F822BF8
:1038600008951F93CF93DF931F92CDB7DEB799834F
:103870000E941B1C182F9981892F0E941B1C212F2D
:1038800030E0322F2227A901482BCA010F90DF9187
:10389000CF911F91089580E090E00E94402B21E09D
:1038A0008C3E9E4F09F020E0822F089582E090E048
:1038B0000C94382B682F82E090E00C94462B83E028
:1038C00090E00C94382B682F83E090E00C94462B0A
:1038D000CF9384E090E00E94382BC82F81E290E0E3
:1038E0000E94382B2C2F30E0A901582BCA01CF9110
:1038F0000895CF93C92F682F84E090E00E94462B53
:103900006C2F81E290E0CF910C94462B86E090E002
:103910000C94382B682F86E090E00C94462BAB017A
:10392000BC018FE090E00C94582BAB01BC0183E10B
:1039300090E00C94582B60E070E0CB010C94951C47
:1039400060E070E0CB010E948F1C0C949B1C6CEE1D
:103950007EEF80E090E00E94642B60E082E090E0E7
:103960000E94462B60E083E090E00E94462B10927C
:10397000720210927302109274021092750260E04B
:1039800084E090E00E94462B60E081E290E00E949B
:10399000462B60E085E090E00E94462B60E086E0E8
:1039A00090E00E94462B6FEF87E090E00E94462B4C
:1039B00040E050E0BA0188E090E00E94582B60E0BF
:1039C0008DE090E00E94462B40E050E0BA0188E193
:1039D00090E00E94582B60E087E190E00E94462B27
:1039E00040E050E0BA018CE190E00E94582B60E08A
:1039F00080E290E00E94462B0C94A01C0C94A71C23
:103A0000682F8EE090E00C94462BFC01329680915A
:103A10001101882331F08091DA0287FF02C09EE114
:103A200001C096E080E0915028F021912223D9F343
:103A30008F5FF9CF08959C01FC0132969FEF80E0E3
:103A40004191461789F09F3F19F4411101C0982F09
:103A50008F5F8630A9F79F3F39F0F901E90FF11D1B
:103A600097FDFA95628308950895FC0132960896B1
:103A70002081261301C010823196E817F907C1F79B
:103A80000895262F2695269526952E3170F4FC0153
:103A9000E20FF11D677021E030E001C0220F6A954E
:103AA000EAF78281282B2283089580919B0280FF70
:103AB0000CC01F926F938CE794E09F938F930E94AA
:103AC00061040F900F900F900F900895262F269568
:103AD000269526952E3178F4FC01E20FF11D6770D2
:103AE00021E030E001C0220F6A95EAF7209582813B
:103AF00028232283089580919B0280FF0CC01F928F
:103B00006F938EE594E09F938F930E9461040F90D2
:103B10000F900F900F90089520911101222329F00A
:103B20002091DA0227FD0C94411D0C941B1D20915D
:103B30001101222329F02091DA0227FD0C94661D41
:103B40000C94351D20911101FC013296222331F095
:103B50008091DA0287FF02C08EE101C086E0DF01BA
:103B60001D928A95E9F7089508950C94B41D0E945A
:103B7000B51D8091E002843061F110929C0220E436
:103B800088E190E00FB6F894A895809360000FBE8E
:103B90002093600080E00E947F0D80E00E948908F1
:103BA0000E94B51D83B7817F846083BF83B7816026
:103BB00083BF7894889583B78E7F83BF0FB6F894C0
:103BC000A8958091600088618093600010926000E9
:103BD0000FBE08950895CF930E94A2040E94FC0492
:103BE0000E94EA1DC0E08C2F0E949805892B29F4C1
:103BF000CF5FC630C1F780E001C081E0CF9108956A
:103C000008950C94001E0E94AE150E94280C0E947C
:103C1000FD0F0E9489080C94011E1F920F920FB68F
:103C20000F9211248F939F93AF93BF9380919C0227
:103C3000811113C08091D6029091D702A091D80231
:103C4000B091D9024196A11DB11D8093D6029093E7
:103C5000D702A093D802B093D902BF91AF919F91A0
:103C60008F910F900FBE0F901F90189582E084BD2A
:103C700093E095BD9AEF97BD80936E0008952FB79E
:103C8000F8948091D6029091D702A091D802B09179
:103C9000D9022FBF0895CF92DF92EF92FF920F9338
:103CA0001F932FB7F8944091D6025091D70260919C
:103CB000D8027091D9022FBF6A017B01EE24FF2444
:103CC0008C0120E030E0C016D106E206F30610F4C5
:103CD000415051099A01281B390BC9011F910F91BD
:103CE000FF90EF90DF90CF90089578941F920F92FD
:103CF0000FB60F9211248F939F93AF93BF93809130
:103D0000D6029091D702A091D802B091D902019623
:103D1000A11DB11D8093D6029093D702A093D80223
:103D2000B093D902BF91AF919F918F910F900FBE29
:103D30000F901F90189581E08093E00080E28093BF
:103D4000D8001092C9008FE19EE40197F1F700C0FE
:103D5000000087E090EBDC018093E9029093EA0297
:103D6000A093EB02B093EC029CE088E10FB6F894CC
:103D7000A895809360000FBE90936000FFCFAF9234
:103D8000BF92CF92DF92EF92FF920F931F93CF9348
:103D9000C0E0CC24C394D12CE82EF12C8C2F0E94AF
:103DA00098055C0100E010E09601002E02C0220F91
:103DB000331F0A94E2F72A213B21232B31F40F5FB2
:103DC0001F4F0E30110581F70AC0602F7C2F80E055
:103DD0000E940409E816F90691F781E004C0CF5F5C
:103DE000C630E1F680E0CF911F910F91FF90EF90E8
:103DF000DF90CF90BF90AF900895CF93C82F8CE203
:103E00000E94BF1E882321F08C2FCF910C94BF1EDF
:103E100080E0CF910895CF930E944B1C811102C086
:103E20000E94FE1C81EA94E00E94C803C5E6C150CE
:103E300049F00E94FC048FE39CE90197F1F700C070
:103E40000000F5CF8AE994E00E94C80389E20E944D
:103E5000FD1E811120C18AE20E94FD1E81110E9477
:103E6000FE1C85E00E94FD1E81110E949B1E0E9487
:103E7000561C80939B0287E00E94FD1E8823A9F1B7
:103E80008BE10E94FD1E882351F080919B0281FBF3
:103E9000222720F991E0922790FB81F90EC08EE055
:103EA0000E94FD1E882361F080919B0282FB2227E5
:103EB00020F991E0922790FB82F980939B0215C034
:103EC00080E10E94FD1E90919B02882341F093FBAC
:103ED000222720F981E0822780FB93F904C0892FF3
:103EE000809580FB90F990939B0280919B020E94A9
:103EF0005A1C0E94681C9093DB028093DA0280EEC9
:103F00000E94FD1E882341F08091DA02982F90953F
:103F100090FB80F98093DA0289E30E94FD1E8823DA
:103F200059F08091DA0281FB222720F991E0922753
:103F300090FB81F98093DA0282EE0E94FD1E8823B5
:103F400059F08091DA0282FB222720F991E0922732
:103F500090FB82F98093DA0286EE0E94FD1E882390
:103F600059F08091DA0283FB222720F991E0922711
:103F700090FB83F98093DA0283EE0E94FD1E882372
:103F800059F08091DA0284FB222720F991E09227F0
:103F900090FB84F98093DA0285E30E94FD1E88235A
:103FA00059F08091DA0285FB222720F991E09227CF
:103FB00090FB85F98093DA0281E30E94FD1E88233D
:103FC00059F08091DA0286FB222720F991E09227AE
:103FD00090FB86F98093DA0281E10E94FD1E88231E
:103FE00059F08091DA0287FB222720F991E092278D
:103FF00090FB87F98093DA028091DA029091DB02DC
:104000000E94791C87E20E94FD1EC82F8EE10E944B
:10401000FD1E8111C2608FE10E94FD1E8111C460EE
:1040200080E20E94FD1E8111C86081E20E94FD1E97
:104030008111C06182E20E94FD1E8111C06283E293
:104040000E94FD1E8111C06484E20E94FD1E88232F
:1040500011F0C06802C0CC2329F08C2F0E94631C91
:104060006C2F03C00E945F1C682F70E080E090E01E
:104070000E9489198FE00E94FD1E882319F081E0BB
:104080000E94001D85E10E94FD1E882321F080E032
:10409000CF910C94001DCF9108958091A10280FFD3
:1040A0000BC06091050185E0689FB00111247595F2
:1040B0006795759567952BC081FF09C060910501D3
:1040C00085E0689FB00111247595679520C082FF37
:1040D00007C06091050185E0689FB001112417C0F9
:1040E0009091A0029923D1F060910401961788F76E
:1040F0002091050185E0289F90011124929FA00145
:10410000939F500D112470E0CA010E94E22A60388A
:10411000710540F46115710539F002C065E070E089
:10412000862F08958FE7089581E008958091A10278
:1041300080FF08C06091030170E0759567957595E3
:10414000679521C081FF06C06091030170E07595FD
:10415000679519C082FF04C06091030170E010C030
:104160009091A0029923C1F0609102019617A0F7E7
:1041700080910301899FC001112470E00E94E22A0E
:104180006038710528F46115710521F0862F0895B6
:104190008FE7089581E0089561E070E0F4CF803FFB
:1041A00021F40E944D20819504C0813F29F40E9492
:1041B0004D208093A5020895823F21F40E944D2056
:1041C000819504C0833F29F40E944D208093A4026E
:1041D0000895893F19F40E94962005C08A3F31F462
:1041E0000E94962081958093A60208958B3F21F42A
:1041F0000E949620819504C08C3F29F40E9496204D
:104200008093A7020895843F21F48091A3028160E6
:1042100017C0853F21F48091A302826011C0863FC0
:1042200021F48091A30284600BC0873F21F4809128
:10423000A302886005C0883F31F48091A3028061A9
:104240008093A30208958D3F21F48091A1028160A3
:104250000BC08E3F21F48091A102826005C08F3F88
:1042600029F48091A10284608093A1020895803F87
:1042700039F48091A50287FF6CC01092A50269C035
:10428000813F29F48091A5021816BCF362C0909179
:10429000A402823F29F497FF5CC01092A40259C087
:1042A000833F19F41916CCF354C0893F41F480912F
:1042B000A60218160CF04DC01092A6024AC08A3F02
:1042C00029F48091A60287FF44C0F6CF8B3F39F4D2
:1042D0008091A70287FF3DC01092A7023AC08C3F91
:1042E00029F48091A7021816BCF333C0843F21F44F
:1042F0008091A3028E7F17C0853F21F48091A30295
:104300008D7F11C0863F21F48091A3028B7F0BC06B
:10431000873F21F48091A302877F05C0883F31F455
:104320008091A3028F7E8093A30213C08D3F21F45E
:104330008091A1028E7F0BC08E3F21F48091A1025B
:104340008D7F05C08F3F29F48091A1028B7F8093E0
:10435000A1028091A40281110EC08091A502811159
:104360000AC08091A602811106C08091A702811126
:1043700002C01092A002089580919B0283FF7EC02C
:104380008DED94E00E94C8038091A3021F928F9349
:1043900088ED94E09F938F930E94610486ED94E0F2
:1043A0000E94C8038091A402282F082E000C330B12
:1043B0003F938F9383ED94E09F938F930E946104CA
:1043C00081ED94E00E94C8038091A502282F082E59
:1043D000000C330B3F938F938EEC94E09F938F935D
:1043E0000E9461048CEC94E00E94C8038091A602B4
:1043F000282F082E000C330B3F938F9389EC94E009
:104400009F938F930E94610487EC94E00E94C803FD
:104410008091A702282F082E000C330B3F938F9317
:1044200084EC94E09F938F930E94610481EC94E06C
:104430000E94C8038091A0021F928F938EEB94E09C
:104440009F938F930E9461048CEB94E00E94C803B9
:104450008091A1021F928F9389EB94E09F938F9399
:104460000E94610486EB94E00E94C8038DB79EB75A
:104470004C960FB6F8949EBF0FBE8DBF82EA92E0B5
:104480000E945E100E943F1E90939F0280939E02A6
:1044900008951F93CF93DF9380919E0290919F0286
:1044A0000E944B1EAC019091A002992321F0209113
:1044B000060130E006C020919D028AE0289F90010D
:1044C00011244217530708F47BC08091A402C091C5
:1044D000A502D091A6021091A702811107C0C111B7
:1044E0006BC0D11169C0111167C06AC09F3F19F03C
:1044F0009F5F9093A002181624F40E944D20809391
:10450000A4028091A40287FF05C00E944D208195DE
:104510008093A4021C1624F40E944D208093A502CF
:104520008091A50287FF05C00E944D208195809350
:10453000A5023091A4023323E1F02091A5022223A9
:10454000C1F045EB3403C0011124892F990F990B59
:10455000009709F481E08093A40235EB2303C001A6
:104560001124892F990F990B009709F481E080930A
:10457000A5021D1624F40E9496208093A602809125
:10458000A60287FF05C00E94962081958093A6020F
:10459000111624F40E9496208093A7028091A7020E
:1045A00087FF05C00E94962081958093A702DF9126
:1045B000CF911F910C94BC219F3F09F099CFA1CFBF
:1045C000DF91CF911F910895E2EAF2E086E0DF01EA
:1045D0001D928A95E9F71092A0021092A102089507
:1045E0008091CB0208959FB7F8941092AA029FBFC2
:1045F0009091E002943009F057C09091E9009F70CB
:104600003091EC00232F217030FD20E8922B23E025
:104610002093E9002091EB0020FF43C02091EE00A1
:1046200027FF3FC02091A802222321F02091E8001B
:1046300025FF37C01092A80226E03091E80035FD32
:1046400015C03091E002343061F53091EB0035FD5A
:1046500028C0215021F481E08093A80222C0EFE914
:10466000FFE03197F1F700C00000E7CF8093F10041
:104670008091E80085FD0AC08091E80080FFFCCFB2
:104680008091E8008E778093E80006C08FB7F89499
:1046900021E02093AA028FBF9F709093E90080E0F1
:1046A00008959F709093E9008FEF0895CF93DF9363
:1046B00000D01F92CDB7DEB79091E002943019F58B
:1046C00089837B836A8382E08093E9008FEF9091F6
:1046D000E800815095FD06C095ED9A95F1F7000030
:1046E0008111F5CF8091E80085FF0DC040E050E0DA
:1046F00063E070E0CE0101960E9417268091E800E9
:104700008E778093E8000F900F900F90DF91CF91FC
:104710000895CF93DF93EC010E94FA25823011F0C7
:10472000843031F4BE0184E0DF91CF910C945623A4
:10473000DF91CF910895BC016058710983E00C941A
:104740005623CF93DF93EC010E94FA25823011F0BB
:104750008430F9F482E08093E9009FEF8091E800D3
:10476000915085FD06C085ED8A95F1F70000911105
:10477000F5CF8091E80085FF0CC040E050E066E096
:1047800070E0CE010E9417268091E8008E7780931A
:10479000E800DF91CF910895CF93DF93EC010E9461
:1047A000FA25823011F08430D9F5809111018823E7
:1047B00039F08091DA0287FF03C060E282E002C034
:1047C00068E081E08093E9008FEF9091E8008150EC
:1047D00095FD06C095ED9A95F1F700008111F5CF92
:1047E0008091E80085FF1CC080911101811105C0F6
:1047F00040E050E068E070E003C070E040E050E06E
:10480000CE010E9417268091E8008E778093E80001
:1048100080E2FE01ABEAB2E001900D928A95E1F7E9
:10482000DF91CF91089585E295E00E94C8038091C1
:10483000DF02811109C00E94AC270E9409288091E3
:10484000E20084608093E200089581E295E00E9496
:10485000C8031092DF0208958DE195E00C94C8031F
:1048600089E195E00C94C80385E195E00E94C803B6
:104870000C94031E2091A9022F5F822F62E30E94F5
:10488000C22A992319F02093A90208951092A9022F
:104890008091AA02882371F18091E002843041F571
:1048A0008091E9008F702091EC00922F917020FD93
:1048B00090E8892B93E09093E9009091EB0090FFB2
:1048C00014C09091EE0097FF10C09091E80095FF02
:1048D00003C01092F100F9CF9091E80090FF05C05D
:1048E0009091E8009E779093E8008F708093E900A4
:1048F0001092AA02089542E061EC81E00E9426270E
:1049000042E261EC82E00E94262742E261EC83E011
:104910000C9426278091E202833009F460C030F4C1
:10492000813071F0823009F499C008958A3009F419
:1049300085C08B3009F46BC0893009F0A7C020C056
:104940008091E102813A09F0A1C08091E800877F5F
:104950008093E8008091E5029091E602892B21F492
:1049600060E28BEA92E003C060E080E090E070E0FB
:104970000E9462268091E8008B778093E80008957A
:104980008091E102813209F081C08091E50290912D
:10499000E602029708F07AC08091E800877F809352
:1049A000E8008091E80082FD05C08091E00281115D
:1049B000F8CF6CC02091F3008091F20090E0922B30
:1049C000029729F48091F1008B7F813021F480914E
:1049D000F1008093CB028091E8008B7753C08091E7
:1049E000E102813A09F052C08091E5029091E6021D
:1049F000892B09F04BC08091E800877F8093E80005
:104A00008091E80080FFFCCF8091110136C0809139
:104A1000E1028132D9F58091E5029091E602892B7D
:104A2000A9F58091E800877F8093E8000E945B27CA
:104A30008091E302809311010C94AE158091E10204
:104A4000813221F58091E800877F8093E8000E9401
:104A50005B278091E4028093CC0208958091E1026B
:104A6000813AA1F48091E800877F8093E8008091EB
:104A7000E80080FFFCCF8091CC028093F100809110
:104A8000E8008E778093E8000C945B27089584B744
:104A9000877F84BF0FB6F894A895809160008861E5
:104AA00080936000109260000FBE90E080E80FB627
:104AB000F89480936100909361000FBE0E94A6104D
:104AC0000E94AC270E9409288091E20084608093B4
:104AD000E20083EF92E20E94161C78940E94972ACB
:104AE0000E94AE1087E091E00E94F80F84E095E00C
:104AF0000E94C8038091E002853089F480E095E04F
:104B00000E94C8030E94B71D8091DE02882391F3A2
:104B10000E94EB1D882371F30E940126EBCF0E94B7
:104B2000E010E8CF0C949425292F3327233031054A
:104B3000C9F064F42130310581F02230310509F0EB
:104B400049C08BE590E027E535E048C021323105CA
:104B500021F12232310571F13DC082E190E022EB7A
:104B600035E03CC099278130910571F02CF4892BF8
:104B700089F5E3E5F5E00DC08230910541F003973A
:104B800049F5E9E2F5E005C0EFE3F5E002C0EFE248
:104B9000F5E0849190E09F0121C063307105D0F46D
:104BA000660F771FFB01E358FE4F2081318189E0BA
:104BB00090E014C06330710568F4FB01EE0FFF1F35
:104BC000E958FE4F20813181FB01EC58FE4F808176
:104BD00090E004C080E090E020E030E0FA01318312
:104BE000208308958091E002843011F081E00895DF
:104BF00082E008958091CD02811102C00C94F225CB
:104C0000089580E189BD82E189BD09B400FEFDCF30
:104C10008091D8008F7D8093D8008091E0008260E1
:104C20008093E0008091E00081FDFCCF0895CF9259
:104C3000DF92EF92FF920F931F93CF93DF93EC01DC
:104C40008B016A010E947A27811133C0C114D104FB
:104C500039F0F60180819181081B190BC80FD91F0B
:104C6000E12CF12C0115110519F18091E80085FD69
:104C700016C08091E8008E778093E800C114D104BB
:104C800049F0F60180819181E80EF91EF182E082FF
:104C900085E00FC00E947A27882321F30AC08991FA
:104CA0008093F10001501109FFEFEF1AFF0ADACFEC
:104CB00080E0DF91CF911F910F91FF90EF90DF90F7
:104CC000CF9008952091E7023091E8022617370728
:104CD00048F06115710539F42091E8002E77209392
:104CE000E80001C0B90140E061157105A9F120910A
:104CF000E002222309F443C0253009F442C0209188
:104D0000E80023FD40C02091E80022FD32C0209140
:104D1000E80020FFE9CF4091F3002091F20030E05D
:104D2000342BFC01CF016115710559F02830310594
:104D300040F481918093F100615071092F5F3F4FE2
:104D4000F1CF41E02830310509F040E02091E80042
:104D50002E772093E800C8CF4111C9CF0AC08091B7
:104D6000E002882361F0853061F08091E80083FDE6
:104D70000AC08091E80082FFF2CF80E0089582E0CF
:104D8000089583E0089581E008952091E70230912D
:104D9000E8022617370748F06115710539F42091AC
:104DA000E8002E772093E80001C0B901FC0120E063
:104DB0006115710591F18091E002882309F440C0EA
:104DC000853009F43FC08091E80083FD3DC08091AB
:104DD000E80082FD2FC08091E80080FFE9CF20919C
:104DE000F3008091F20090E0922B6115710559F06B
:104DF0008830910540F424912093F1003196615060
:104E000071090196F2CF21E0089709F020E0809126
:104E1000E8008E778093E800CBCF2111CCCF0AC079
:104E20008091E002882361F0853061F08091E80094
:104E300083FD0AC08091E80082FFF2CF80E00895F0
:104E400082E0089583E0089581E00895982F9730D7
:104E500058F59093E900981739F07091EC00209183
:104E6000ED005091F00003C0242F762F50E021FF79
:104E700019C03091EB003E7F3093EB003091ED0094
:104E80003D7F3093ED003091EB0031603093EB00CB
:104E90007093EC002093ED005093F0002091EE0011
:104EA00027FF07C09F5FD3CF8F708093E90081E019
:104EB000089580E008958091E10287FF11C08091FC
:104EC000E80082FD05C08091E0028111F8CF11C099
:104ED0008091E8008B770BC08091E002882349F035
:104EE0008091E80080FFF8CF8091E8008E77809372
:104EF000E80008952091E4003091E50095E64091A6
:104F0000EC00842F817040FF22C08091E80080FD7A
:104F10001CC08091E002882391F0853091F080914F
:104F2000EB0085FD10C04091E4005091E500421770
:104F3000530729F39A01915011F784E0089582E014
:104F4000089583E0089581E0089580E008954091F8
:104F5000E80042FFDECF08950E941A280E9422280E
:104F6000E0EEF0E0808181608083E8EDF0E0808118
:104F70008F77808319BCA7EDB0E08C918E7F8C93E6
:104F800080818F7E80831092DF0208950F931F939C
:104F9000CF93DF930E941A280E942228C8EDD0E008
:104FA00088818F77888388818068888388818F7DD6
:104FB000888319BC1092E0021092DC021092DE028B
:104FC0001092DD0200EE10E0F80180818B7F80837B
:104FD00088818160888342E060E080E00E9426272B
:104FE000E1EEF0E080818E7F8083E2EEF0E0808170
:104FF00081608083808188608083F80180818E7FDA
:105000008083888180618883DF91CF911F910F9188
:105010000895E8EDF0E080818F7E8083E7EDF0E099
:1050200080818160808384E082BF81E08093DF02A1
:105030000C94C627E8EDF0E080818E7F808310928B
:10504000E20008951092DA001092E10008951F9294
:105050000F920FB60F9211242F933F934F935F93AC
:105060006F937F938F939F93AF93BF93EF93FF9330
:105070008091E10082FF0BC08091E20082FF07C0B7
:105080008091E1008B7F8093E1000E943A2480911F
:10509000DA0080FF1FC08091D80080FF1BC0809184
:1050A000DA008E7F8093DA008091D90080FF0DC0F6
:1050B00080E189BD82E189BD09B400FEFDCF81E0B8
:1050C0008093E0020E94132405C019BC1092E002F4
:1050D0000E9425248091E10080FF19C08091E200A8
:1050E00080FF15C08091E2008E7F8093E200809166
:1050F000E20080618093E2008091D800806280931A
:10510000D80019BC85E08093E0020E943024809191
:10511000E10084FF30C08091E20084FF2CC080E178
:1051200089BD82E189BD09B400FEFDCF8091D80020
:105130008F7D8093D8008091E1008F7E8093E10085
:105140008091E2008F7E8093E2008091E200816096
:105150008093E2008091DC02882311F084E007C094
:105160008091E30087FD02C081E001C083E080936D
:10517000E0020E9434248091E10083FF29C08091E5
:10518000E20083FF25C08091E100877F8093E100EA
:1051900082E08093E0021092DC028091E1008E7F39
:1051A0008093E1008091E2008E7F8093E200809105
:1051B000E20080618093E20042E060E080E00E94D3
:1051C00026278091F00088608093F0000E942C24B4
:1051D000FF91EF91BF91AF919F918F917F916F91CF
:1051E0005F914F913F912F910F900FBE0F901F90A5
:1051F00018951F920F920FB60F9211242F933F9381
:105200004F935F936F937F938F939F93AF93BF93CE
:10521000CF93DF93EF93FF93C091E900CF7080911C
:10522000EC00D82FD17080FDD0E81092E900809179
:10523000F000877F8093F00078940E943D291092BF
:10524000E9008091F00088608093F000CD2BCF7052
:10525000C093E900FF91EF91DF91CF91BF91AF91A2
:105260009F918F917F916F915F914F913F912F917E
:105270000F900FBE0F901F9018951F93CF93DF9341
:10528000CDB7DEB7AA970FB6F894DEBF0FBECDBF7D
:10529000E1EEF2E088E08E0F9091F10091938E1391
:1052A000FBCF0E948A248091E80083FF28C180916F
:1052B000E1029091E202492F50E04A30510508F096
:1052C0001EC1FA01EC58FF4F0C94182B803821F0C6
:1052D000823809F014C108C08091DD029091DE028D
:1052E000992389F082600FC08091E5028F7087302A
:1052F00008F005C18093E9008091EB0085FB8827C9
:1053000080F91092E9009091E800977F9093E8006F
:105310008093F1001092F100D0C0282F2D7F09F06A
:10532000EEC0882319F0823061F0E9C08091E30279
:10533000813009F0E4C0933009F080E08093DE0210
:105340002EC08091E30281112AC08091E5028F7006
:105350002FEF280F263008F0D2C08093E90020916B
:10536000EB0020FF1CC0933021F48091EB008062A1
:1053700014C09091EB0090619093EB0021E030E03D
:10538000A90102C0440F551F8A95E2F74093EA0035
:105390001092EA008091EB0088608093EB001092FD
:1053A000E9008091E800877F8093E8000E945B27F6
:1053B000A6C08111A4C01091E3021F778091E30081
:1053C0008078812B8093E3008091E800877F809331
:1053D000E8000E945B278091E80080FFFCCF80916D
:1053E000E30080688093E300111102C082E001C0F5
:1053F00083E08093E00283C08058823008F07FC051
:105400008091E3029091E4028C3D53E0950779F599
:1054100083E08A838AE289834FB7F894DE0113968A
:1054200020E03EE051E2E32FF0E050935700E4919A
:1054300020FF03C0E295EF703F5FEF708E2F90E08A
:10544000EA3010F0C79601C0C0968D939D932F5FF0
:10545000243149F74FBF8091E800877F8093E800AF
:105460006AE270E0CE0101960E94622615C060914A
:10547000E5027091E602AE014F5F5F4F0E949225F8
:10548000BC01892BE1F19091E800977F9093E800AF
:1054900089819A810E94C5268091E8008B7780934C
:1054A000E8002DC0803859F58091E800877F80930F
:1054B000E8008091DC028093F1008091E8008E7713
:1054C00073CF81111CC09091E3029230C0F480919F
:1054D000E800877F8093E8009093DC020E945B27BE
:1054E0008091DC02811106C08091E30087FD02C03B
:1054F00081E001C084E08093E0020E947B248091DF
:10550000E80083FF0AC08091E800877F8093E8006D
:105510008091EB0080628093EB00AA960FB6F8941E
:10552000DEBF0FBECDBFDF91CF911F910895CF9306
:105530008091E0028823A1F0C091E900CF709091A2
:10554000EC00892F817090FD80E8C82B1092E90053
:105550008091E80083FD0E943D29CF70C093E9004F
:10556000CF910895DB018F939F930E942D2BBF91C4
:10557000AF91A29F800D911DA39F900DB29F900DA2
:1055800011240895991B79E004C0991F961708F01B
:10559000961B881F7A95C9F780950895AA1BBB1B97
:1055A00051E107C0AA1FBB1FA617B70710F0A61B23
:1055B000B70B881F991F5A95A9F780959095BC0144
:1055C000CD01089597FB072E16F4009407D077FDC0
:1055D00009D00E94CE2A07FC05D03EF49095819513
:1055E0009F4F0895709561957F4F0895A1E21A2EFF
:1055F000AA1BBB1BFD010DC0AA1FBB1FEE1FFF1F77
:10560000A217B307E407F50720F0A21BB30BE40BC6
:10561000F50B661F771F881F991F1A9469F760950D
:105620007095809590959B01AC01BD01CF010895C7
:10563000EE0FFF1F0590F491E02D0994A29FB00199
:10564000B39FC001A39F700D811D1124911DB29FB6
:10565000700D811D1124911D08950E941E2BA59F80
:10566000900DB49F900DA49F800D911D112408955D
:10567000F999FECF92BD81BDF89A992780B508951A
:10568000A8E1B0E042E050E00C946C2B262FF99991
:10569000FECF92BD81BDF89A019700B4021639F091
:1056A0001FBA20BD0FB6F894FA9AF99A0FBE089562
:1056B0000396272F0E94472B0E94462B252F0E94DE
:1056C000472B242F0C94472B0196272F0E94472B02
:1056D0000C94462BDC01CB01FC01F999FECF06C0EE
:1056E000F2BDE1BDF89A319600B40D9241505040A0
:0856F000B8F70895F894FFCF0C
:1056F800780228083C0714F022CC23A1239B238995
:105708002301E200E900EA00B500B600B700CD00C9
:105718008301CC008A019201940121022302240210
:105728002502260227022A02B300B4006F00700087
:10573800818283E200E900EA00B500B600B700CD37
:10574800008301CC008A01920194012102230224E2
:10575800022502260227022A02B300B4006F007055
:105768000081828340C022A606E605C40569058239
:04577800059B050088
:00000001FF
